:100000000C94D5000C94F6000C94F6000C94EC01C2
:100010000C94F6000C94F6000C94F6000C94F60088
:100020000C94F6000C94F6000C94F6000C94F60078
:100030000C94F6000C94F6000C94F6000C94F60068
:100040000C94F6000C94F6000C94F6000C94F60058
:100050000C94F6000C94F6000C94F6000C94F60048
:100060000C94F6000C94F6000C94F6000C94F60038
:100070000C94F6000C94F6000C94F6000C94F60028
:100080000C94F6000C94F6000C94F6000C94F60018
:100090000C94F6000C94F6000C94F6000C945B049F
:1000A0000C94F6000C94F6000C94F6000C94F600F8
:1000B0000C94F6000C94F6000C94F6000C94F600E8
:1000C0000C94F6000C94F6000C94F6000C94F600D8
:1000D0000C94F6000C94F6000C94F6000C94F600C8
:1000E0000C94F6007A04CC04CC04CC04CC04CC04EC
:1000F000CC04CC047A04CC04CC04CC04CC04CC04D2
:10010000CC04CC047C04CC04CC04CC04CC04CC04BF
:10011000CC04CC04CC04CC04CC04CC04CC04CC045F
:10012000CC04CC047C04CC04CC04CC04CC04CC049F
:10013000CC04CC04CC04CC04CC04CC04CC04CC043F
:10014000CC04CC04C804CC04CC04CC04CC04CC0433
:10015000CC04CC04A504CC04CC04CC04CC04CC0446
:10016000CC04CC04CC04CC04CC04CC04CC04CC040F
:10017000CC04CC049904CC04CC04CC04CC04CC0432
:10018000CC04CC04B7040C94C8040C94A5040C94BF
:1001900099040C947A040C947C040C94B7040C9489
:1001A000CC040C94B3010C94AB0111241FBECFEF0F
:1001B000D1E2DEBFCDBF00E00CBF12E0A0E0B2E0B4
:1001C000E0E7F9E100E00BBF02C007900D92A03814
:1001D000B107D9F722E0A0E8B2E001C01D92A6392C
:1001E000B207E1F70E9495010C94B60C0C94000044
:1001F0008BE090E00E943008EC0107E012E00E94E2
:1002000011028823E1F3CE010E9456023C812B812A
:1002100088819981432F032E000C550B5F933F93E8
:10022000422F022E000C550B5F932F939F938F93B9
:100230001F930F930E94A8098DB79EB708960FB61B
:10024000F8949EBF0FBE8DBFDACF8BE090E00E9486
:100250003008EC01B12C0DE212E00F2EF1E4EF2E8C
:10026000F2E0FF2EF02D0F2EF5E5CF2EF2E0DF2E7F
:10027000F02DA12C0E9411028823F1F0CE010E94E2
:1002800056022B8188819981422F022E000C550B3A
:100290005F932F939F938F931F930F930E94A809AF
:1002A0008B81082E000C990B0E9478030F900F9001
:1002B0000F900F900F900F900E94C0038823D1F2EF
:1002C000B3941F92BF92FF92EF920E94A8090F90E1
:1002D0000F900F900F9029E02B1538F4DF92CF92FA
:1002E0000E94A8090F900F90BA2C8FEF99E628E191
:1002F000815090402040E1F700C00000BBCF8BE070
:1003000090E00E943008EC010E9411028823E1F382
:10031000CE010E9456028B81082E000C990B0E9480
:1003200078038B810E943B05EFCF60E074E284EF9D
:1003300090E00E94BB010E94F1020E94FB0160E07C
:1003400074E284EF90E00E9469030E94C9030E9456
:10035000E2040E947F01E0ECF0E0908195FFFDCF88
:100360008093C6000895E0ECF0E080818823ECF7EC
:100370008091C6000895CF92DF92EF92FF926B01B9
:100380007C0180E792E00E94BC092FE38DE093E0BE
:10039000215080409040E1F700C00000C701B60145
:1003A00020E038E542E050E00E947B0521501092A9
:1003B000C5002093C40088E18093C1008EE0809343
:1003C000C20063EB71E08BEA91E00E945D09FF904F
:1003D000EF90DF90CF9008951F920F920FB60F927B
:1003E00011248F9381E0809380028F910F900FBE34
:1003F0000F901F9018950E94DF0260E08FE00E942E
:10040000A70263E08BE20E94A702F894E9E6F0E01D
:1004100080818062808380818F7E8083EA9A789455
:10042000089580918002882319F01092800281E063
:1004300008950895FF920F931F93CF93DF938C013C
:10044000FC0160817181C081D181F28076956795D0
:10045000769567957695679581E30E94A702BE0120
:10046000660F771F62957295707F7627607F76277B
:1004700082E30E94A7026F2D85E30E94A702FF205E
:1004800061F0C0E0D0E0F801EC0FFD1F638186E36E
:100490000E94A7022196CF15B0F381E80E94B9020D
:1004A000DF91CF911F910F91FF900895EF92FF92EE
:1004B0000F931F93CF937C0181E60E949802182F1F
:1004C00082E60E949802C82F85E60E949802F701F2
:1004D0008283110F110F110FC295C695C7708C2F13
:1004E00090E0810F911D918380838281882381F028
:1004F000C0E00C2F10E086E68C0F0E949802F701F6
:10050000E00FF11F8383CF5FF7018281C81788F363
:1005100040E061E08CE20E94C70240E062E08CE2D1
:100520000E94C702CF911F910F91FF90EF90089505
:10053000CF93C82F2F9883E00E94EB028C2F0E944C
:10054000EB0280E00E94EB022F9ACF910895CF93A7
:10055000DF93D82FC62F2F9882E00E94EB028D2FB9
:100560000E94EB028C2F0E94EB022F9ADF91CF9119
:1005700008952F980E94EB022F9A08952F9880EAF1
:100580000E94EB0280E00E94EB022F9A08951F93D5
:10059000CF93DF93182FD62FC42F2F9885E00E947A
:1005A000EB02812F0E94EB028D2F0E94EB028C2F19
:1005B0000E94EB022F9ADF91CF911F9108952F98FF
:1005C00080EC0E94EB022F9A83ED90E30197F1F704
:1005D00000C0000008958EBD0DB407FEFDCF8EB59E
:1005E000089587E884B981E58CBD0895CF92DF92A4
:1005F000EF92FF92CF93DF936B017C01E0EAF0E092
:10060000808182608083C1EAD0E0888188618883AC
:10061000808180688083CA01B901689412F8969538
:100620008795779567951694D1F7609381027093BB
:10063000820280938302909384020E94BF06A701E6
:1006400096010E94760720E030E040E05FE30E94E0
:10065000A6050E9490067093A7006093A60088816B
:100660008B7F888388818260888388818E7F88835E
:10067000E1E0F1E0808188608083DF91CF91FF909D
:10068000EF90DF90CF900895CF92DF92EF92FF929C
:100690006B017C01609181027091820280918302E2
:1006A000909184020E94BF06A70196010E947607DE
:1006B00020E030E040E05FE30E94A6050E94900643
:1006C0007093A9006093A800FF90EF90DF90CF9007
:1006D00008959B01AC016AE077ED83EA9CE30E94F8
:1006E000F60266EA7BE984EC9AE30E9444030895EB
:1006F000CF92DF92EF92FF92BC01990F880B990B7A
:100700000E94C10620E030E543EC57E40E94170642
:100710002FE632E143E85AE30E94A6056B017C0113
:100720002FE632E143E85AE30E9412068823ACF038
:100730002FE632E143E05BE3C701B6010E94710797
:100740001816ACF40F2EFFE6CF2EF2E1DF2EF3E009
:10075000EF2EFBE3FF2EF02D0AC00F2EFFE6CF2E6B
:10076000F2E1DF2EF3E8EF2EFAE3FF2EF02DC701C2
:10077000B6010E944403FF90EF90DF90CF90089560
:100780000E94DB0321E0883C910508F020E0822FE5
:1007900008958298EAE7F0E0808180688083808114
:1007A00081608083808182608083ECE7F0E08081DB
:1007B000806480830895ECE7F0E08081826080832C
:1007C000EAE7F0E0808180648083808186FDFDCF50
:1007D0008091780020917900237090E0922B089509
:1007E0008CE08093B8008FEF8093BB0084E080930F
:1007F000BC0008958091BC0081700895ECEBF0E09E
:10080000808180FDFDCF809100020895CF93DF931A
:10081000EC01ECEBF0E0908190FDFDCF609387025E
:1008200098819093880290FD13C0623088F0FE0199
:100830003196A9E8B2E06250262F30E02E5F3F4F9C
:10084000CE01820F931F21912D93E817F907D9F755
:100850001092850288EF8093000285EA8093BC00A5
:10086000DF91CF910895ECEBF0E0808180FDFDCF2A
:100870001092850288EF8093000285EA8093BC0085
:100880000895ECEBF0E0208120FDFDCF2091850262
:1008900020FF0DC0662359F028E832E0A82FB92FB9
:1008A000F90181918D938E2F821B8617D0F3809151
:1008B0008502817008951F920F920FB60F92112436
:1008C0000BB60F922F933F938F939F93AF93BF934A
:1008D000EF93FF93E091B9008E2F90E0FC013897E1
:1008E000E135F10508F058C08827EE58FF4F8F4FCB
:1008F0000C949D0510928602E091860280918702F9
:10090000E81770F481E08E0F80938602F0E0E857DC
:10091000FD4F80818093BB0085E88093BC0043C07D
:100920008091850281608093850284E98093BC0078
:100930003AC0E091860281E08E0F8093860280911A
:10094000BB00F0E0E857FD4F80832091860230E045
:100950008091870290E001972817390724F485ECED
:100960008093BC0020C085E88093BC001CC08091AF
:10097000BB00E0918602F0E0E857FD4F8083809154
:10098000850281608093850284E98093BC000BC05E
:1009900085EA8093BC0007C08091B9008093000273
:1009A00084E08093BC00FF91EF91BF91AF919F9144
:1009B0008F913F912F910F900BBE0F900FBE0F9014
:1009C0001F901895F8940E94F00378940895CF939F
:1009D000DF9300D0CDB7DEB79EE599831A828B8373
:1009E00063E0CE0101960E9406040F900F900F90D5
:1009F000DF91CF9108950E94E7040895E2E0F1E0CD
:100A000080818F7B808382E48A95F1F700C08081AA
:100A1000806480830895E1E0F1E0808180618083DB
:100A2000A2E0B1E08C9180618C93808182608083B0
:100A300080818062808380818860808380818064FF
:100A400080830E94FE040895803340F4E2E0F1E0E8
:100A500080818D7F808380E090E00895833340F033
:100A6000E2E0F1E080818260808381E090E008959F
:100A700082E090E00895CF93C82F0E942405892B2F
:100A8000C1F462E370E06C1B7109072E000C880B47
:100A9000990B0E94C10623E333E343EA50E40E942A
:100AA00076070E94E3070E948906862F0E94E704CA
:100AB00020C08C2F0E9424050197C1F46C2F70E098
:100AC00062537109072E000C880B990B0E94C10616
:100AD00023E333E343EA50E40E9476070E94E307EE
:100AE0000E948906862F0E94E70403C080E00E94CE
:100AF000E704CF910895A1E21A2EAA1BBB1BFD01AA
:100B00000DC0AA1FBB1FEE1FFF1FA217B307E407EC
:100B1000F50720F0A21BB30BE40BF50B661F771F44
:100B2000881F991F1A9469F7609570958095909524
:100B30009B01AC01BD01CF010895EE0FFF1F881F7F
:100B40008BBF0790F691E02D19945058BB27AA2728
:100B50000E94BD050C9437070E94290738F00E94B7
:100B6000300720F039F49F3F19F426F40C9426073F
:100B70000EF4E095E7FB0C942007E92F0E9448074C
:100B800058F3BA17620773078407950720F079F4C2
:100B9000A6F50C946A070EF4E0950B2EBA2FA02D43
:100BA0000B01B90190010C01CA01A0011124FF271A
:100BB000591B99F0593F50F4503E68F11A16F04015
:100BC000A22F232F342F4427585FF3CF4695379514
:100BD0002795A795F0405395C9F77EF41F16BA0BD9
:100BE000620B730B840BBAF09150A1F0FF0FBB1F87
:100BF000661F771F881FC2F70EC0BA0F621F731FD0
:100C0000841F48F4879577956795B795F7959E3F2C
:100C100008F0B0CF9395880F08F09927EE0F9795BD
:100C2000879508950E94FC0608F481E008950E94CB
:100C30002B060C9437070E94300758F00E942907B2
:100C400040F029F45F3F29F00C94200751110C94D7
:100C50006B070C9426070E94480768F39923B1F3A9
:100C6000552391F3951B550BBB27AA2762177307D2
:100C7000840738F09F5F5F4F220F331F441FAA1F66
:100C8000A9F335D00E2E3AF0E0E832D09150504022
:100C9000E695001CCAF72BD0FE2F29D0660F771FD0
:100CA000881FBB1F261737074807AB07B0E809F0B6
:100CB000BB0B802DBF01FF2793585F4F3AF09E3F3B
:100CC000510578F00C9420070C946B075F3FE4F318
:100CD000983ED4F3869577956795B795F7959F5F7E
:100CE000C9F7880F911D9695879597F90895E1E0CA
:100CF000660F771F881FBB1F621773078407BA0729
:100D000020F0621B730B840BBA0BEE1F88F7E09583
:100D100008950E9490066894B1110C946B07089591
:100D20000E94500788F09F5798F0B92F9927B75124
:100D3000B0F0E1F0660F771F881F991F1AF0BA957F
:100D4000C9F714C0B13091F00E946A07B1E008956C
:100D50000C946A07672F782F8827B85F39F0B93F5E
:100D6000CCF3869577956795B395D9F73EF4909532
:100D70008095709561957F4F8F4F9F4F0895E894B0
:100D800009C097FB3EF490958095709561957F4FD3
:100D90008F4F9F4F9923A9F0F92F96E9BB27939581
:100DA000F695879577956795B795F111F8CFFAF491
:100DB000BB0F11F460FF1BC06F5F7F4F8F4F9F4FC2
:100DC00016C0882311F096E911C0772321F09EE820
:100DD000872F762F05C0662371F096E8862F70E086
:100DE00060E02AF09A95660F771F881FDAF7880F60
:100DF0009695879597F90895990F0008550FAA0BB6
:100E0000E0E8FEEF16161706E807F907C0F012161D
:100E10001306E407F50798F0621B730B840B950B20
:100E200039F40A2661F0232B242B252B21F4089575
:100E30000A2609F4A140A6958FEF811D811D089512
:100E400097F99F6780E870E060E008959FEF80EC7D
:100E5000089500240A941616170618060906089520
:100E600000240A9412161306140605060895092E86
:100E70000394000C11F4882352F0BB0F40F4BF2BF5
:100E800011F460FF04C06F5F7F4F8F4F9F4F089535
:100E900057FD9058440F551F59F05F3F71F047952B
:100EA000880F97FB991F61F09F3F79F08795089510
:100EB000121613061406551FF2CF4695F1DF08C02F
:100EC000161617061806991FF1CF8695710561054C
:100ED00008940895E894BB2766277727CB0197F9F4
:100EE00008950E94FC0608F48FEF08950E94890778
:100EF0000C9437070E94290738F00E94300720F031
:100F0000952311F00C9420070C94260711240C94BF
:100F10006B070E94480770F3959FC1F3950F50E04F
:100F2000551F629FF001729FBB27F00DB11D639F9B
:100F3000AA27F00DB11DAA1F649F6627B00DA11D41
:100F4000661F829F2227B00DA11D621F739FB00DE7
:100F5000A11D621F839FA00D611D221F749F332757
:100F6000A00D611D231F849F600D211D822F762FF0
:100F70006A2F11249F5750409AF0F1F088234AF0CD
:100F8000EE0FFF1FBB1F661F771F881F9150504039
:100F9000A9F79E3F510580F00C9420070C946B0735
:100FA0005F3FE4F3983ED4F3869577956795B795C0
:100FB000F795E7959F5FC1F7FE2B880F911D9695DA
:100FC000879597F908950E945007E8F09E37E8F05A
:100FD0009639B8F49E3848F4672F782F8827985FA1
:100FE000F9CF86957795679593959539D0F3B62F78
:100FF000B1706B0F711D811D20F4879577956795F2
:1010000093950C9407080C9422080C946B07882382
:1010100071F4772321F09850872B762F07C0662331
:1010200011F499270DC09051862B70E060E02AF0F2
:101030009A95660F771F881FDAF7880F9695879520
:1010400097F908959F3F31F0915020F48795779557
:101050006795B795880F911D9695879597F908958F
:10106000CF93DF938230910510F482E090E0E0911D
:101070008E02F0918F0220E030E0C0E0D0E03097A7
:1010800011F14081518148175907C0F0481759079D
:1010900061F482819381209719F09B838A832BC00E
:1010A00090938F0280938E0226C02115310519F08E
:1010B0004217530718F49A01BE01DF01EF010280C5
:1010C000F381E02DDCCF2115310509F1281B390B07
:1010D0002430310590F412968D919C9113976115EF
:1010E000710521F0FB019383828304C090938F02EA
:1010F00080938E02FD01329644C0FD01E20FF31F82
:1011000081939193225031092D933C933AC02091C1
:101110008C0230918D02232B41F4209103023091F7
:10112000040230938D0220938C02209101023091B1
:1011300002022115310541F42DB73EB74091050259
:1011400050910602241B350BE0918C02F0918D0228
:10115000E217F307A0F42E1B3F0B2817390778F08E
:10116000AC014E5F5F4F2417350748F04E0F5F1FED
:1011700050938D0240938C028193919302C0E0E0E2
:10118000F0E0CF01DF91CF9108950F931F93CF939C
:10119000DF93009709F48CC0FC013297138212820E
:1011A00000918E0210918F020115110581F42081AA
:1011B0003181820F931F20918C0230918D0228176C
:1011C000390779F5F0938D02E0938C0271C0D80154
:1011D00040E050E0AE17BF0750F412962D913C91BD
:1011E0001397AD012115310509F1D901F3CF9D0107
:1011F000DA013383228360817181860F971F821702
:10120000930769F4EC0128813981260F371F2E5F7F
:101210003F4F318320838A819B8193838283452B37
:1012200029F4F0938F02E0938E0242C01396FC9350
:10123000EE931297ED01499159919E01240F351FAC
:10124000E217F30771F480819181840F951F029654
:1012500011969C938E938281938113969C938E9387
:101260001297E0E0F0E0D80112968D919C911397CF
:10127000009719F0F8018C01F6CF8D919C9198019F
:101280002E5F3F4F820F931F20918C0230918D0271
:101290002817390769F4309729F410928F021092B9
:1012A0008E0202C01382128210938D0200938C0270
:1012B000DF91CF911F910F9108950F931F93CF93BB
:1012C000DF93009731F46115710519F480E090E027
:1012D0003AC08B01EC016EE070E081E090E00E948A
:1012E000E70BFC01892B91F380E88383011511053D
:1012F00071F01387028781E8838380919002909137
:101300009102892B21F4F0939102E09390022097AF
:10131000C9F0D187C08783818260838380919202E4
:1013200090919302892B71F4F0939302E0939202CF
:101330008091940290919502892B21F4F09395026B
:10134000E0939402CF01DF91CF911F910F91089507
:10135000CF93DF93CDB7DEB7AE014A5F5F4FFA019F
:1013600061917191AF0180919202909193020E94DC
:10137000EC09DF91CF9108950F931F93CF93DF93E3
:10138000E0919202F0919302238121FF1BC08C0116
:10139000D0E0C0E0F80181918F01609192027091DC
:1013A0009302DB011896ED91FC911997882331F097
:1013B0001995892B79F3DFEFCFEFECCF8AE0199500
:1013C000892B19F08FEF9FEF02C08D2F9C2FDF919B
:1013D000CF911F910F9108952F923F924F925F925C
:1013E0006F927F928F929F92AF92BF92CF92DF9235
:1013F000EF92FF920F931F93CF93DF93CDB7DEB79A
:101400002C970FB6F894DEBF0FBECDBF7C016B01E9
:101410008A01FC0117821682838181FFBDC1CE0142
:1014200001964C01F7019381F60193FD859193FF9D
:1014300081916F01882309F4ABC1853239F493FDA2
:10144000859193FF81916F01853229F4B70190E076
:101450000E94200CE7CF512C312C20E02032A0F448
:101460008B3269F030F4803259F0833269F42061B4
:101470002CC08D3239F0803339F4216026C02260CF
:10148000246023C0286021C027FD27C030ED380F1D
:101490003A3078F426FF06C0FAE05F9E300D112442
:1014A000532E13C08AE0389E300D1124332E206253
:1014B0000CC08E3221F426FD6BC1206406C08C3630
:1014C00011F4206802C0883641F4F60193FD85913D
:1014D00093FF81916F018111C1CF982F9F7D95540A
:1014E000933028F40C5F1F4FFFE3F9830DC0833660
:1014F00031F0833771F0833509F05BC022C0F80109
:10150000808189830E5F1F4F44244394512C5401E2
:1015100015C03801F2E06F0E711CF801A080B18097
:1015200026FF03C0652D70E002C06FEF7FEFC5019D
:101530002C870E94150C2C0183012C852F77222EDD
:1015400017C03801F2E06F0E711CF801A080B18065
:1015500026FF03C0652D70E002C06FEF7FEFC5016D
:101560002C870E94030C2C012C852068222E8301DD
:1015700023FC1BC0832D90E048165906B0F4B70138
:1015800080E290E00E94200C3A94F4CFF50127FC11
:10159000859127FE81915F01B70190E00E94200CA8
:1015A00031103A94F1E04F1A51084114510471F787
:1015B000E5C0843611F0893639F5F80127FF07C0F8
:1015C00060817181828193810C5F1F4F08C06081AF
:1015D0007181072E000C880B990B0E5F1F4F2F7621
:1015E000722E97FF09C090958095709561957F4FF9
:1015F0008F4F9F4F2068722E2AE030E0A4010E9496
:10160000580CA82EA81844C0853729F42F7EB22E76
:101610002AE030E025C0F22FF97FBF2E8F36C1F0CF
:1016200018F4883579F0B4C0803719F0883721F084
:10163000AFC02F2F2061B22EB4FE0DC08B2D846061
:10164000B82E09C024FF0AC09F2F9660B92E06C08D
:1016500028E030E005C020E130E002C020E132E0C7
:10166000F801B7FE07C060817181828193810C5FB0
:101670001F4F06C06081718180E090E00E5F1F4FB8
:10168000A4010E94580CA82EA818FB2DFF777F2ECE
:1016900076FE0BC0372D3E7FA51450F474FE0AC0B1
:1016A00072FC08C0372D3E7E05C0BA2C372D03C012
:1016B000BA2C01C0B52C34FF0DC0FE01EA0DF11D9E
:1016C0008081803311F4397E09C032FF06C0B394A3
:1016D000B39404C0832F867809F0B39433FD13C00C
:1016E00030FF06C05A2CB31418F4530C5B18B32CFB
:1016F000B31468F4B70180E290E03C870E94200CAC
:10170000B3943C85F5CFB31410F43B1801C0312CD1
:1017100034FF12C0B70180E390E03C870E94200CA8
:101720003C8532FF17C031FD03C088E790E002C05E
:1017300088E590E0B7010CC0832F867859F031FF1F
:1017400002C08BE201C080E237FD8DE2B70190E07C
:101750000E94200CA51438F4B70180E390E00E94A9
:10176000200C5A94F7CFAA94F401EA0DF11D808160
:10177000B70190E00E94200CA110F5CF332009F4AE
:1017800051CEB70180E290E00E94200C3A94F6CF4F
:10179000F7018681978102C08FEF9FEF2C960FB6DD
:1017A000F894DEBF0FBECDBFDF91CF911F910F9197
:1017B000FF90EF90DF90CF90BF90AF909F908F9071
:1017C0007F906F905F904F903F902F9008950F9370
:1017D0001F93CF93DF93869F8001879F100D969F65
:1017E000100D1124C8010E943008EC01009729F067
:1017F000A80160E070E00E940E0CCE01DF91CF9155
:101800001F910F910895FC010590615070400110E7
:10181000D8F7809590958E0F9F1F0895DC0101C029
:101820006D9341505040E0F70895FC0161507040C5
:1018300001900110D8F7809590958E0F9F1F089505
:101840000F931F93CF93DF93FB01238121FD03C0EF
:101850008FEF9FEF28C022FF16C046815781248159
:1018600035814217530744F4A081B1819D012F5F58
:101870003F4F318320838C93268137812F5F3F4FE9
:101880003783268310C0EB01092F182F0084F185C0
:10189000E02D1995892BE1F68E819F8101969F831A
:1018A0008E83812F902FDF91CF911F910F910895FB
:1018B000FA01AA27283051F1203181F1E8946F9381
:1018C0006E7F6E5F7F4F8F4F9F4FAF4FB1E03ED027
:1018D000B4E03CD0670F781F891F9A1FA11D680FC5
:1018E000791F8A1F911DA11D6A0F711D811D911DF8
:1018F000A11D20D009F468943F912AE0269F11246D
:101900003019305D3193DEF6CF010895462F4770D0
:10191000405D4193B3E00FD0C9F7F6CF462F4F702B
:10192000405D4A3318F0495D31FD4052419302D089
:10193000A9F7EACFB4E0A69597958795779567952F
:10194000BA95C9F700976105710508959B01AC012F
:101950000A2E06945795479537952795BA95C9F756
:10196000620F731F841F951FA01D0895F894FFCF69
:10197000F800009602200072656365697665642050
:1019800049443A2025642C20706F7320782C7920EC
:101990003D202825642C2564290A0A0D000A4944A3
:1019A0003A2025642C20646174613A2025640A0D74
:1019B00000474F414C3F212073636F7265203D20EB
:1019C00025640A0D0047616D65206F7665722E2EC5
:1019D0002E2072657374617274696E67210A0D003E
:1019E000554152545F696E697428292E2E2E0000CD
:00000001FF
