:100000000C949B030C94DF0A0C9409050C94B80320
:100010000C94B8030C94B8030C94B8030C94B80374
:100020000C94B8030C94B8030C94B8030C94B80364
:100030000C94B8030C94B8030C94B8030C94B80354
:100040000C94B8030C945E050C94B8030C94B8039C
:100050000C94B8030C94B8030C94B8030C94B80334
:100060000C94B8030C94B8030C94B8030C94B80324
:1000700000000000005C00000C000C007C287C28C4
:1000800058DC68002410480028542840000C000068
:10009000007884008478000054385400107C1000EC
:1000A00080400000101010000040000060100C00A4
:1000B00038543800487C40004864580044542C00B0
:1000C0001C107C005C5424003854240064140C0080
:1000D00068542C0048543800004800008048000054
:1000E0001028440028282800442810000454080040
:1000F00038445C00781478007C5428003844280088
:100100007C4438007C5444007C140400384474005F
:100110007C107C00447C440020403C007C106C003F
:100120007C4040007C187C0078103C00384438004B
:100130007C1408003844B8007C146800485424003B
:10014000047C04007C407C003C603C007C307C00F3
:100150006C106C000C700C0064544C00007C44006B
:100160000C106000447C00000804080080808000BF
:1001700000040800304878007C48300030484800CF
:1001800030487C00306850001078140090A8780047
:100190007C08700050744000808074007C106800FF
:1001A000447C4000781078007808700030483000B7
:1001B000F82810003048F80078100800505828003F
:1001C000083C4800384078003840380078207800F3
:1001D0004830480098A0780048685800107884009B
:1001E000007C00008478100008040804000000006F
:1001F0000000005F00000007000700147F147F1458
:10020000242A7F2A1223130864623649552250009B
:1002100005030000001C2241000041221C00082AA6
:100220001C2A0808083E080800503000000808088A
:100230000808006060000020100804023E51494593
:100240003E00427F400042615149462141454B31C9
:100250001814127F1027454545393C4A4949300159
:10026000710905033649494936064949291E0036B0
:100270003600000056360000000814224114141401
:10028000141441221408000201510906324979412F
:100290003E7E1111117E7F494949363E414141223E
:1002A0007F4141221C7F494949417F090901013EA3
:1002B000414151327F0808087F00417F41002040C2
:1002C000413F017F081422417F404040407F0204AB
:1002D000027F7F0408107F3E4141413E7F090909AA
:1002E000063E4151215E7F09192946464949493157
:1002F00001017F01013F4040403F1F2040201F7F00
:100300002018207F631408146303047804036151E8
:1003100049454300007F4141020408102041417FCC
:100320000000040201020440404040400001020479
:100330000020545454787F4844443838444444207E
:10034000384444487F3854545418087E0901020840
:100350001454543C7F0804047800447D400020403D
:10036000443D00007F10284400417F40007C041879
:1003700004787C0804047838444444387C14141409
:1003800008081414187C7C080404084854545420A9
:10039000043F4440203C4040207C1C2040201C3C2A
:1003A0004030403C44281028440C5050503C446499
:1003B000544C44000836410000007F0000004136E4
:1003C000080002010302010000000000000000001C
:1003D000065F5F0600000000070700070700001423
:1003E0007F7F147F7F1400242E6B6B3A120000462F
:1003F0006630180C666200307A4F5D377A48000428
:1004000007030000000000001C3E634100000000E4
:1004100041633E1C000000082A3E1C1C3E2A0808BE
:10042000083E3E0808000000A0E060000000000850
:100430000808080808000000006060000000006074
:1004400030180C060301003E7F594D7F3E000042EC
:10045000427F7F40400000627359496F660000226E
:100460006349497F360000181C16137F7F10002750
:100470006745457D3900003C7E4B497930000003DB
:100480006371190F070000367F49497F3600000667
:100490004F49693F1E000000006C6C000000000026
:1004A000A0EC6C00000000081C3663410000001442
:1004B00014141414140000004163361C08000002D8
:1004C0000351590F0600003E7F415D5D1F1E007CF9
:1004D0007E13137E7C0000417F7F49497F36001CDC
:1004E0003E634141632200417F7F41637F1C0041A5
:1004F0007F7F495D416300417F7F491D0103001CEF
:100500003E6341517372007F7F08087F7F000000C7
:10051000417F7F41000000307040417F3F0100413A
:100520007F7F081C776300417F7F41406070007FC0
:100530007F060C067F7F007F7F060C187F7F001CE4
:100540003E6341633E1C00417F7F49090F06001E48
:100550003F21717F5E0000417F7F19396F46002681
:10056000674D597B32000003417F7F410300007FCC
:100570007F40407F7F00001F3F60603F1F00007F83
:100580007F3018307F7F0063771C081C776300077B
:100590004F78784F0700006773594D47637100002B
:1005A0007F7F41410000000103060C18306000000D
:1005B00041417F7F000000080C0603060C08008004
:1005C000808080808080800000030704000000207D
:1005D0007454543C784000413F7F44447C38003898
:1005E0007C44446C280000307848493F7F40003804
:1005F0007C54545C180000487E7F49030200009838
:10060000BCA4A4F87C0400417F7F08047C7800002F
:10061000447D7D4000000040C484FD7D0000004119
:100620007F7F10386C440000417F7F400000007CD9
:100630007C0C180C7C78007C7C04047C78000038EE
:100640007C44447C38000084FCF8A4243C18001846
:100650003C24A4F8FC8400447C78441C1800004826
:100660005C54547424000000043E7F442400003C89
:100670007C40403C7C40001C3C60603C1C00003CDA
:100680007C6030607C3C00446C3810386C44009CCA
:10069000BCA0A0FC7C00004C64745C4C64000008AE
:1006A000083E7741410000000000777700000041DC
:1006B00041773E0808000002030103020301000322
:1006C00003E906D906C7064261636B20746F204DAB
:1006D00061696E204D656E75004D69636861656C7A
:1006E000204D756C6C696E73004576656E205761A0
:1006F0006E76696B00437265646974730017070B4B
:1007000007030743726564697473004D656E752055
:100710004974656D2032004D656E75204974656DB4
:100720002031004D61696E206D656E750057656CF6
:10073000636F6D65000011241FBECFEFD4E0DEBFF4
:10074000CDBF13E0A0E0B1E0E8EBF4E202C0059019
:100750000D92A23CB107D9F723E0A2ECB3E001C0AF
:100760001D92A63EB207E1F70E942A040C945A1289
:100770000C94000081E191E00E94110F85B7806820
:1007800085BF80B7806280BF089508950E94D10917
:10079000FDCF8BE090E00E94270DEC018BE090E014
:1007A0000E94270D8C0188E08A838A81882349F082
:1007B00080E0FE01E80FF11D83838F5F9A81891726
:1007C000C0F383E090E099838883888199819F9327
:1007D0008F9389E291E09F938F930E94FB0E0F907D
:1007E0000F900F900F900F2EF2E3CF2EF1E0DF2E3F
:1007F000F02DD0E00F2EFFE3EF2EF1E0FF2EF02DD5
:100800000E94220B8823E1F3DF92CF920E94FB0E1D
:10081000C8010E94950BF80182810F900F908823E8
:1008200079F3CD2FF801EC0FF11D9381292F092EBB
:10083000000C330B3F939F93FF92EF920E94FB0EAD
:10084000CF5FF80182810F900F900F900F90C81723
:1008500048F3D6CF60E070E08BE490E00E943E0465
:100860000E94870A0E940C0B0E94C9035D9BFECF69
:100870008CB908955F9BFECF8CB10895CF92DF9223
:10088000EF92FF926B017C0184E491E00E94110FD2
:100890002FE38DE093E0215080409040E1F700C0CD
:1008A0000000C701B60120E038E542E050E00E94B8
:1008B000080C215010BC29B988E18AB98EE880BDA6
:1008C0006AE374E086E394E00E94B00EFF90EF903C
:1008D000DF90CF900895A09AA89A0895A8980895B7
:1008E000A89A08950E946E0483EC99E00197F1F7AD
:1008F00000C000000E9470049FE32DE083E091504F
:1009000020408040E1F700C000000895CF92DF92C0
:10091000EF92FF920F931F93CF93DF9383E591E0C4
:100920000E94110F0E94A00E7C010E94A50EC12CF6
:10093000D12CC0E0D0E009E611E00E94A00EF60143
:10094000F85E808320812817A1F099279F938F93C9
:100950001F922F93DF92CF921F930F930E94FB0E53
:1009600021968DB79EB708960FB6F8949EBF0FBE1E
:100970008DBF9FEFC91AD90AC11488E0D806E9F6DD
:10098000C7010E94A50E00E010E0E12CF12C0F2E13
:10099000F2EACF2EF1E0DF2EF02D0E94A00EF8013A
:1009A000F85E20812817B1F099279F938F931F92AB
:1009B0002F931F930F93DF92CF920E94FB0E9FEF16
:1009C000E91AF90A8DB79EB708960FB6F8949EBF3C
:1009D0000FBE8DBF0F5F1F4F011598E01907E9F695
:1009E000FF92EF92DF93CF938FED91E09F938F93E0
:1009F0000E94FB0E0F900F900F900F900F900F9092
:100A0000DF91CF911F910F91FF90EF90DF90CF90EA
:100A100008951F920F920FB60F9211248F93EF93A8
:100A2000FF93E0910001F091010180818093C70361
:100A3000FF91EF918F910F900FBE0F901F9018951F
:100A400088E392E00E94110F2FE38DE093E02150A4
:100A500080409040E1F700C000008B98939AF89492
:100A600085B7886085BF85B78B7F85BF8BB780686A
:100A70008BBF789408958091C703089581309105C4
:100A800039F098F08230910591F0039719F004C085
:100A900085E00EC087E00CC086E492E09F938F93C0
:100AA0000E94FB0E0F900F90089584E001C086E035
:100AB000E0910001F0910101808308951F920F924F
:100AC0000FB60F9211242F933F934F935F936F9321
:100AD0007F938F939F93AF93BF93EF93FF930E9466
:100AE0003B052091C8033091C90321303105B9F18C
:100AF00048F02230310509F45FC02330310509F494
:100B000076C090C02091D1039927AC01421B5109B6
:100B100027FD53959A0144E6429FC001439F900DE3
:100B200011246FEF70E00E94F40B072E000C880B6D
:100B3000990B0E94760C0E94DA0C0E943E0C9B01DD
:100B4000772324F422273327261B370B2093CA034D
:100B500081E090E09093C9038093C8036CC020911A
:100B6000CF039927AC01421B510927FD53959A01E8
:100B700044E6429FC001439F900D11246FEF70E047
:100B80000E94F40B072E000C880B990B0E94760C28
:100B90000E94DA0C0E943E0C9B01772324F422274A
:100BA0003327261B370B2093CB0382E090E09093F2
:100BB000C9038093C8033FC054E6859FC001112438
:100BC0006FEF70E00E94F40B072E000C880B990B5E
:100BD0000E94760C0E94DA0C0E943E0C6093CD03BA
:100BE00083E090E09093C9038093C80324C024E677
:100BF000829FC00111246FEF70E00E94F40B072E5A
:100C0000000C880B990B0E94760C0E94DA0C0E9453
:100C10003E0C6093CE031092C9031092C80380E08B
:100C200090E009C086E492E09F938F930E94FB0EB0
:100C30000F900F9002C00E943E05FF91EF91BF916F
:100C4000AF919F918F917F916F915F914F913F9164
:100C50002F910F900FBE0F901F90189580E090E09D
:100C60000E943E0589EF90E00197F1F700C0000077
:100C70000E943B058F578093D10381E090E00E9452
:100C80003E0589EF90E00197F1F700C000000E9457
:100C90003B058F578093CF039FEB27E289E091506C
:100CA00020408040E1F700C000000895CF93DF931B
:100CB000EC0188E592E00E94110F2FE38DE093E0B4
:100CC000215080409040E1F700C00000B898C09AE1
:100CD000B998BA980E942E0680E090E00E943E05E6
:100CE000F89482E089BFC11521E0D20719F484E0AD
:100CF00083BF05C0C115D44011F485E083BF78944B
:100D0000DF91CF9108958130910559F018F0029745
:100D100061F00FC096B381E08927282F217030E061
:100D200012C026B3247030E00EC026B3227030E02B
:100D30000AC08BE692E09F938F930E94FB0E0F9068
:100D40000F9021E030E0C90108958091CA0390918D
:100D5000CB030895EAECF3E070816181872F90E086
:100D6000C297AC0122F444275527481B590B862F04
:100D700090E0C2979C0122F422273327281B390BCD
:100D8000421753073CF07D3268F0783370F480E00E
:100D900090E008956D3260F081E090E0683350F4A7
:100DA00080E0089584E090E0089583E090E0089565
:100DB00082E090E008958091CD0390E008958091C5
:100DC000CE0390E00895E0910301F0910401808347
:100DD0000895E0910501F091060180830895E09166
:100DE0000301F091040190E29083E0910301F091FE
:100DF000040180830895CF938830A8F4C82F90E031
:100E00009093C3038093C20382E090E00E94EF06B8
:100E1000E0910301F091040180EB8C0F808380E06E
:100E200090E00E94EF06CF910895CF938823FCF0C5
:100E3000C82F82E090E00E94EF068C2F90E0909304
:100E4000C5038093C403E0910301F09104018C2F4A
:100E50008F708083E0910301F09104018C2F8295C3
:100E60008F70805F808380E090E00E94EF06CF91DA
:100E7000089580E00E94FB0680E00E941507089517
:100E8000CF93C62F0E94FB068C2F0E941507CF918F
:100E90000895CF93C82F60E00E94400790E0E09152
:100EA0000501F091060110829F5F9038C1F78C2FE9
:100EB0000E94FB06CF910895CF93C0E08C2F0E9433
:100EC0004907CF5FC830D1F70E943907CF91089505
:100ED0008CE792E00E94110F2FE38DE093E0215008
:100EE00080409040E1F700C00000E0910301F091E4
:100EF00004018EEA8083E0910301F091040181EA0C
:100F00008083E0910301F09104018AED8083E091F8
:100F10000301F091040182E18083E0910301F091EB
:100F2000040188EC8083E0910301F091040188EAD8
:100F30008083E0910301F09104018FE38083E091CD
:100F40000301F091040185ED8083E0910301F091AC
:100F5000040180E88083E0910301F091040181E8BD
:100F60008083E0910301F091040180E58083E091AA
:100F70000301F091040189ED8083E0910301F09178
:100F8000040181E2808380E090E00E94EF06E0911E
:100F90000301F091040182E08083E0910301F0916C
:100FA00004018BED8083E0910301F091040180E363
:100FB0008083E0910301F09104018DEA8083E09148
:100FC0000301F09104011082E0910301F09104010A
:100FD00084EA8083E0910301F091040186EA808332
:100FE000E0910301F09104018FEA8083E091030115
:100FF000F091040180E480830E945C070895CF9300
:10100000DF93805290910201953059F0983021F091
:10101000943009F083C00AC090910201911158C028
:101020007DC09091020191112BC078C09091020176
:10103000992309F473C020E090E0880F991F880F6E
:10104000991FA2ECB3E0FC01E20FF11DE059FF4F44
:10105000E491C0910501D0910601E883309102012D
:1010600012964D915C911397430F511D13965C930B
:101070004E9312972F5F30910201231720F34EC039
:1010800020E090E0AC01440F551F440F551F840F22
:10109000951FA2ECB3E0FC01E20FF11DE451FE4FFD
:1010A000E491C0910501D0910601E88330910201DD
:1010B00012964D915C911397430F511D13965C93BB
:1010C0004E9312972F5F30910201231720F326C011
:1010D00020E090E0880F991F880F991F880F991FB3
:1010E000A2ECB3E0FC01E20FF11DE953FC4FE491E7
:1010F000C0910501D0910601E8833091020112965A
:101100004D915C911397430F511D13965C934E9331
:1011100012972F5F30910201231720F3DF91CF91B7
:101120000895CF93DF93EC01862F642F0E94400730
:101130008881882331F021960E94FF0789918111CF
:10114000FBCFDF91CF910895809102010895813006
:10115000910539F050F0029759F484E08093020130
:10116000089585E080930201089588E0809302014C
:101170000895CF93DF93EC01862F642F0E944007E0
:10118000FE018491882349F0FE01219684910E94FA
:10119000FF07FE0184918111F7CFDF91CF91089570
:1011A0001F93CF93DF93C091D4030E945C0780917B
:1011B000D5039091D603009721F0019709F445C01B
:1011C00087C080E090E00E94A7084091D303D1E05F
:1011D000DC0F6C2F83E297E00E94B90881E090E079
:1011E0000E94A708E091D503F091D603E154F94F8E
:1011F000E491EE23D9F0C0E04091D20311E01D0F3D
:10120000EC2FF0E0EE0FFF1FE350F94F8591949122
:101210006D2F0E94B908CF5FE091D503F091D603FE
:10122000E154F94FE491D12FCE1730F382E090E0F2
:101230000E94A7086091D2038091D80366500E9453
:1012400040078EE30E94FF0743C080E090E00E94C9
:10125000A7084091D303D1E0DC0F6C2F85EF96E017
:101260000E94B90881E090E00E94A708E091D503B0
:10127000F091D603E154F94FE491EE23D9F0C0E0A8
:101280004091D20311E01D0FEC2FF0E0EE0FFF1F95
:10129000EF53F94F859194916D2F0E94B908CF5F5C
:1012A000E091D503F091D603E154F94FE491D12FA9
:1012B000CE1730F36091D2038091D80366500E941C
:1012C000400782E090E00E94A7088EE30E94FF079B
:1012D000DF91CF911F9108958091D9039091DA0306
:1012E00081309105B1F018F0029729F140C080914A
:1012F000D5039091D603009719F0019731F009C0FA
:101300008BE892E00E94110F04C08DEA92E00E94E7
:10131000110F8091D5039091D603009719F0019792
:1013200031F009C082ED92E00E94110F04C084EFF9
:1013300092E00E94110F8091D5039091D6030097FF
:1013400019F0019761F013C089E193E00E94110F39
:1013500081E090E09093D6038093D50308C08FE29C
:1013600093E00E94110F1092D6031092D503809142
:10137000D9039091DA039F938F9387E493E09F932F
:101380008F930E94FB0E1092DA031092D903809182
:10139000D4038F5F8093D8030F900F900F900F901E
:1013A0000895CF93E091D503F091D603E154F94F1E
:1013B000C4910E94AA068130910551F58AE693E016
:1013C0000E94110F8091D80381508093D80380919F
:1013D000D9039091DA0301979093DA038093D903AC
:1013E0002091D8038091D40330E090E00196281733
:1013F00039075CF48091D8038C0F8093D803EC2FCD
:10140000F0E0F093DA03E093D9030E94D00843C0E0
:10141000029739F583E793E00E94110F8091D8037A
:101420008F5F8093D8038091D9039091DA0301965E
:101430009093DA038093D9038091D9039091DA03D2
:10144000EC2FF0E08E179F0748F08091D4038F5F58
:101450008093D8031092DA031092D9030E94D00827
:101460001AC080E090E00E948306892B61F482E03C
:1014700090E00E948306892B31F481E090E00E9485
:101480008306892B41F08EE793E00E94110F0E94A2
:101490006C090E94D008CF9108951092DB0310923E
:1014A000D6031092D5031092DA031092D9038AE082
:1014B0008093D30384E18093D20381E08093D403AB
:1014C0008091D4038F5F8093D8030E94A40827E003
:1014D000829FC00111249595879540E4481B64E0E4
:1014E0008DE297E00E94B9088FE794E82EE18150E1
:1014F00090402040E1F700C000000E945C070E947D
:10150000D00808958FB9779BFECF8FB1089580EBF7
:1015100087BB81E58DB90895CF93C82FC49883E028
:101520000E94820A8C2F0E94820A80E00E94820A16
:10153000C49ACF910895CF93DF93D82FC62FC49824
:1015400082E00E94820A8D2F0E94820A8C2F0E94C4
:10155000820AC49ADF91CF910895C4980E94820AAA
:10156000C49A0895C49880EA0E94820A80E00E948A
:10157000820AC49A08951F93CF93DF93182FD62F12
:10158000C42FC49885E00E94820A812F0E94820A9B
:101590008D2F0E94820A8C2F0E94820AC49ADF91AA
:1015A000CF911F910895C49880EC0E94820AC49A3A
:1015B00083ED90E30197F1F700C0000008951F92BA
:1015C0000F920FB60F9211242F933F934F935F9377
:1015D0006F937F938F939F93AF93BF93EF93FF93FB
:1015E00081E08093C6038EE893E09F938F930E94DF
:1015F000FB0E0F900F90FF91EF91BF91AF919F91D4
:101600008F917F916F915F914F913F912F910F90AB
:101610000FBE0F901F9018950E94D30A60E08FE0D4
:101620000E949B0A63E08BE20E949B0AF89485B7B4
:10163000826085BF85B78E7F85BF8BB780648BBF87
:10164000789408958091C603882319F01092C603F8
:1016500081E0089508958CE20E948C0A82FB88271D
:1016600080F991E089270895AF92BF92DF92EF92BF
:10167000FF920F931F93CF93DF931F92CDB7DEB7E7
:101680007C01198289818F5F89838981833008F089
:101690001982F701A080B18000811181D280808100
:1016A00091819F938F9385E993E09F938F930E94FD
:1016B000FB0EB50176956795769567957695679556
:1016C00081E30E949B0AB801660F771F62957295AD
:1016D000707F7627607F762782E30E949B0A6D2DBC
:1016E00085E30E949B0A0F900F900F900F90DD20D2
:1016F00071F000E010E0F701E00FF11F638186E375
:10170000800F0E949B0A0F5F1F4F0D15A0F381E809
:101710000E94AD0A0F90DF91CF911F910F91FF9022
:10172000EF90DF90BF90AF900895EF92FF920F93EC
:101730001F93CF937C0181E60E948C0AC82F82E61A
:101740000E948C0A182F85E60E948C0AF70182837A
:10175000812F829586958770CC0FCC0FCC0F2C2FC4
:1017600030E0280F311D318320831F928F9382EA4E
:1017700093E09F938F930E94FB0EF70182811F924B
:101780008F9380EB93E09F938F930E94FB0EF70162
:1017900082812DB73EB7285F3F4F0FB6F8943EBF0A
:1017A0000FBE2DBF882381F0C0E00C2F10E086E62D
:1017B0008C0F0E948C0AF701E00FF11F8383CF5F2B
:1017C000F7018281C81788F340E061E08CE20E9453
:1017D000BB0A40E062E08CE20E94BB0ACF911F91FD
:1017E0000F91FF90EF90089597FB072E16F4009449
:1017F00007D077FD09D00E942A0C07FC05D03EF4E3
:10180000909581959F4F0895709561957F4F0895AC
:10181000A1E21A2EAA1BBB1BFD010DC0AA1FBB1FF4
:10182000EE1FFF1FA217B307E407F50720F0A21B66
:10183000B30BE40BF50B661F771F881F991F1A94D3
:1018400069F760957095809590959B01AC01BD01FD
:10185000CF010895AA1BBB1B51E107C0AA1FBB1FE4
:10186000A617B70710F0A61BB70B881F991F5A952C
:10187000A9F780959095BC01CD0108950E94450C73
:101880006894B1110C94D40C08950E94B90C88F09E
:101890009F5798F0B92F9927B751B0F0E1F0660F34
:1018A000771F881F991F1AF0BA95C9F714C0B13075
:1018B00091F00E94D30CB1E008950C94D30C672FE3
:1018C000782F8827B85F39F0B93FCCF386957795A4
:1018D0006795B395D9F73EF490958095709561958D
:1018E0007F4F8F4F9F4F0895E89409C097FB3EF4B8
:1018F00090958095709561957F4F8F4F9F4F99235D
:10190000A9F0F92F96E9BB279395F69587957795DA
:101910006795B795F111F8CFFAF4BB0F11F460FF9A
:101920001BC06F5F7F4F8F4F9F4F16C0882311F0F2
:1019300096E911C0772321F09EE8872F762F05C006
:10194000662371F096E8862F70E060E02AF09A95A1
:10195000660F771F881FDAF7880F9695879597F996
:10196000089557FD9058440F551F59F05F3F71F08F
:101970004795880F97FB991F61F09F3F79F08795F6
:101980000895121613061406551FF2CF4695F1DF7F
:1019900008C0161617061806991FF1CF869571050F
:1019A000610508940895E894BB2766277727CB0143
:1019B00097F908950E94B90CE8F09E37E8F096393F
:1019C000B8F49E3848F4672F782F8827985FF9CFAE
:1019D00086957795679593959539D0F3B62FB17025
:1019E0006B0F711D811D20F48795779567959395F1
:1019F0000C94FE0C0C94190D0C94D40C882371F4E7
:101A0000772321F09850872B762F07C0662311F497
:101A100099270DC09051862B70E060E02AF09A95CE
:101A2000660F771F881FDAF7880F9695879597F9C5
:101A300008959F3F31F0915020F4879577956795F1
:101A4000B795880F911D9695879597F90895CF932F
:101A5000DF938230910510F482E090E0E091DE03A4
:101A6000F091DF0320E030E0C0E0D0E0309711F1EA
:101A70004081518148175907C0F04817590761F450
:101A800082819381209719F09B838A832BC0909346
:101A9000DF038093DE0326C02115310519F04217BC
:101AA000530718F49A01BE01DF01EF010280F381B0
:101AB000E02DDCCF2115310509F1281B390B24302D
:101AC000310590F412968D919C91139761157105D3
:101AD00021F0FB019383828304C09093DF03809302
:101AE000DE03FD01329644C0FD01E20FF31F819336
:101AF0009193225031092D933C933AC02091DC03FD
:101B00003091DD03232B41F42091090130910A012A
:101B10003093DD032093DC0320910701309108010D
:101B20002115310541F42DB73EB740910B0150917D
:101B30000C01241B350BE091DC03F091DD03E2176F
:101B4000F307A0F42E1B3F0B2817390778F0AC01E0
:101B50004E5F5F4F2417350748F04E0F5F1F5093BD
:101B6000DD034093DC038193919302C0E0E0F0E059
:101B7000CF01DF91CF9108950F931F93CF93DF9300
:101B8000009709F48CC0FC013297138212820091F5
:101B9000DE031091DF030115110581F420813181ED
:101BA000820F931F2091DC033091DD032817390742
:101BB00079F5F093DD03E093DC0371C0D80140E0D8
:101BC00050E0AE17BF0750F412962D913C91139739
:101BD000AD012115310509F1D901F3CF9D01DA01DC
:101BE0003383228360817181860F971F8217930749
:101BF00069F4EC0128813981260F371F2E5F3F4F92
:101C0000318320838A819B8193838283452B29F4AE
:101C1000F093DF03E093DE0342C01396FC93EE9350
:101C20001297ED01499159919E01240F351FE2173A
:101C3000F30771F480819181840F951F02961196AC
:101C40009C938E938281938113969C938E9312978B
:101C5000E0E0F0E0D80112968D919C9113970097E7
:101C600019F0F8018C01F6CF8D919C9198012E5FAF
:101C70003F4F820F931F2091DC033091DD03281723
:101C8000390769F4309729F41092DF031092DE03CC
:101C900002C0138212821093DD030093DC03DF91F4
:101CA000CF911F910F9108958F929F92AF92BF9203
:101CB000CF92DF92EF92FF92CF93DF93EC01688196
:101CC00079818A819B81611571058105910521F4D6
:101CD00064E279ED8BE597E02DE133EF41E050E0F0
:101CE0000E94E21149015A019B01AC01A7EAB1E44B
:101CF0000E9401126B017C01ACEEB4EFA5019401CE
:101D00000E940F12DC01CB018C0D9D1DAE1DBF1D6D
:101D1000B7FF03C00197A109B04888839983AA83BC
:101D2000BB839F77DF91CF91FF90EF90DF90CF90B3
:101D3000BF90AF909F908F9008950E94540E089589
:101D40008DE091E00E94540E0895A0E0B0E08093F1
:101D50000D0190930E01A0930F01B093100108950F
:101D60000F931F93CF93DF93009731F461157105A3
:101D700019F480E090E03AC08B01EC016EE070E075
:101D800081E090E00E941311FC01892B91F380E81F
:101D900083830115110571F01387028781E883831E
:101DA0008091E0039091E103892B21F4F093E1030A
:101DB000E093E0032097C9F0D187C08783818260D8
:101DC00083838091E2039091E303892B71F4F09374
:101DD000E303E093E2038091E4039091E503892B10
:101DE00021F4F093E503E093E403CF01DF91CF9179
:101DF0001F910F910895A0E0B0E0E1E0FFE00C94A6
:101E00002412AE014B5F5F4FFA0161917191AF01F6
:101E10008091E2039091E3030E94410FE2E00C9471
:101E200040120F931F93CF93DF93E091E203F09161
:101E3000E303238121FF1BC08C01D0E0C0E0F80147
:101E400081918F016091E2037091E303DB011896A9
:101E5000ED91FC911997882331F00995892B79F33D
:101E6000DFEFCFEFECCF8AE00995892B19F08FEFE8
:101E70009FEF02C08D2F9C2FDF91CF911F910F916B
:101E80000895ACE0B0E0E7E4FFE00C9414127C01AC
:101E90006B018A01FC0117821682838181FFBDC11B
:101EA000CE0101964C01F7019381F60193FD8591D6
:101EB00093FF81916F01882309F4ABC1853239F416
:101EC00093FD859193FF81916F01853229F4B701CC
:101ED00090E00E944C11E7CF512C312C20E02032B1
:101EE000A0F48B3269F030F4803259F0833269F417
:101EF00020612CC08D3239F0803339F4216026C046
:101F00002260246023C0286021C027FD27C030ED57
:101F1000380F3A3078F426FF06C0FAE05F9E300DA5
:101F20001124532E13C08AE0389E300D1124332E15
:101F300020620CC08E3221F426FD6BC1206406C0E5
:101F40008C3611F4206802C0883641F4F60193FD06
:101F5000859193FF81916F018111C1CF982F9F7D52
:101F60009554933028F40C5F1F4FFFE3F9830DC0A5
:101F7000833631F0833771F0833509F05BC022C0BE
:101F8000F801808189830E5F1F4F44244394512CB4
:101F9000540115C03801F2E06F0E711CF801A080E9
:101FA000B18026FF03C0652D70E002C06FEF7FEFA8
:101FB000C5012C870E9441112C0183012C852F77AC
:101FC000222E17C03801F2E06F0E711CF801A080BC
:101FD000B18026FF03C0652D70E002C06FEF7FEF78
:101FE000C5012C870E942F112C012C852068222EE0
:101FF000830123FC1BC0832D90E048165906B0F4E2
:10200000B70180E290E00E944C113A94F4CFF501C0
:1020100027FC859127FE81915F01B70190E00E9426
:102020004C1131103A94F1E04F1A51084114510407
:1020300071F7E5C0843611F0893639F5F80127FFCC
:1020400007C060817181828193810C5F1F4F08C03E
:1020500060817181072E000C880B990B0E5F1F4F5A
:102060002F76722E97FF09C0909580957095619597
:102070007F4F8F4F9F4F2068722E2AE030E0A401DF
:102080000E948411A82EA81844C0853729F42F7EF9
:10209000B22E2AE030E025C0F22FF97FBF2E8F3616
:1020A000C1F018F4883579F0B4C0803719F088375A
:1020B00021F0AFC02F2F2061B22EB4FE0DC08B2DAA
:1020C0008460B82E09C024FF0AC09F2F9660B92EE5
:1020D00006C028E030E005C020E130E002C020E189
:1020E00032E0F801B7FE07C060817181828193817F
:1020F0000C5F1F4F06C06081718180E090E00E5F31
:102100001F4FA4010E948411A82EA818FB2DFF7751
:102110007F2E76FE0BC0372D3E7FA51450F474FE43
:102120000AC072FC08C0372D3E7E05C0BA2C372D80
:1021300003C0BA2C01C0B52C34FF0DC0FE01EA0D5E
:10214000F11D8081803311F4397E09C032FF06C051
:10215000B394B39404C0832F867809F0B39433FD0D
:1021600013C030FF06C05A2CB31418F4530C5B187C
:10217000B32CB31468F4B70180E290E03C870E946E
:102180004C11B3943C85F5CFB31410F43B1801C047
:10219000312C34FF12C0B70180E390E03C870E94ED
:1021A0004C113C8532FF17C031FD03C088E790E039
:1021B00002C088E590E0B7010CC0832F867859F003
:1021C00031FF02C08BE201C080E237FD8DE2B70132
:1021D00090E00E944C11A51438F4B70180E390E020
:1021E0000E944C115A94F7CFAA94F401EA0DF11D04
:1021F0008081B70190E00E944C11A110F5CF3320EF
:1022000009F451CEB70180E290E00E944C113A945B
:10221000F6CFF7018681978102C08FEF9FEF2C9652
:10222000E2E10C9430120F931F93CF93DF93869FBC
:102230008001879F100D969F100D1124C8010E94E8
:10224000270DEC01009729F0A80160E070E00E94E2
:102250003A11CE01DF91CF911F910F910895FC01AA
:102260000590615070400110D8F7809590958E0FC1
:102270009F1F0895DC0101C06D9341505040E0F76D
:102280000895FC016150704001900110D8F78095CD
:1022900090958E0F9F1F08950F931F93CF93DF93F9
:1022A000FB01238121FD03C08FEF9FEF28C022FF98
:1022B00016C046815781248135814217530744F463
:1022C000A081B1819D012F5F3F4F318320838C938B
:1022D000268137812F5F3F4F3783268310C0EB0164
:1022E000092F182F0084F185E02D0995892BE1F63F
:1022F0008E819F8101969F838E83812F902FDF9106
:10230000CF911F910F910895FA01AA27283051F11A
:10231000203181F1E8946F936E7F6E5F7F4F8F4F16
:102320009F4FAF4FB1E03ED0B4E03CD0670F781F75
:10233000891F9A1FA11D680F791F8A1F911DA11D5A
:102340006A0F711D811D911DA11D20D009F4689493
:102350003F912AE0269F11243019305D3193DEF63B
:10236000CF010895462F4770405D4193B3E00FD0F1
:10237000C9F7F6CF462F4F70405D4A3318F0495DDC
:1023800031FD4052419302D0A9F7EACFB4E0A695BF
:102390009795879577956795BA95C9F700976105E1
:1023A000710508959B01AC010A2E06945795479537
:1023B00037952795BA95C9F7620F731F841F951F2C
:1023C000A01D0895052E97FB1EF400940E94F9119C
:1023D00057FD07D00E94080C07FC03D04EF40C9464
:1023E000F91150954095309521953F4F4F4F5F4FD4
:1023F000089590958095709561957F4F8F4F9F4F71
:1024000008950E944B12A59F900DB49F900DA49F1C
:10241000800D911D11240895B7FF0C9401120E94A4
:102420000112821B930B08952F923F924F925F925D
:102430006F927F928F929F92AF92BF92CF92DF92D4
:10244000EF92FF920F931F93CF93DF93CDB7DEB739
:10245000CA1BDB0B0FB6F894DEBF0FBECDBF0994CD
:102460002A88398848885F846E847D848C849B8424
:10247000AA84B984C884DF80EE80FD800C811B8132
:10248000AA81B981CE0FD11D0FB6F894DEBF0FBE61
:10249000CDBFED010895A29FB001B39FC001A39FDE
:1024A000700D811D1124911DB29F700D811D11248D
:0824B000911D0895F894FFCF7F
:1024B800001408001000120000E6032000010000CC
:1024C800006D656D6F72795F6C61796F75745F69A6
:1024D8006E697428292E2E2E0049443A2025640A54
:1024E8000D007265636569766564206D7367002504
:1024F800640D0A00554152545F696E697428292E8B
:102508002E2E005374617274696E67205352414DC8
:1025180020746573742E2E2E0057726974652070AE
:1025280068617365206572726F723A206578745FAE
:1025380072616D5B2534645D203D20253032582062
:102548002873686F756C64206265202530325829BD
:102558000A0052657472696576616C2070686173EF
:1025680065206572726F723A206578745F72616D6A
:102578005B2534645D203D2025303258202873685F
:102588006F756C642062652025303258290A005323
:1025980052414D207465737420636F6D706C65745F
:1025A80065642077697468200A253464206572722E
:1025B8006F727320696E2077726974652070686124
:1025C800736520616E64200A253464206572726F19
:1025D800727320696E2072657472696576616C2009
:1025E80070686173650A0A004144435F696E6974E3
:1025F80028292E2E2E004E6F742076616C69642077
:102608006368616E6E656C006A6F79737469636B79
:102618005F696E697428292E2E2E004E6F742076FD
:10262800616C696420627574746F6E004F4C454428
:1026380020696E697428292E2E2E0043686F6F73E7
:10264800696E67206D656E75204974656D2031204F
:10265800696E206D61696E206D656E750043686FE7
:102668006F73696E67206D656E75204974656D209E
:102678003120696E2063726564697473206D656EBC
:10268800750043686F6F73696E67206D656E75209E
:102698004974656D203220696E206D61696E206D08
:1026A800656E750043686F6F73696E67206D656E40
:1026B80075204974656D203220696E2063726564E7
:1026C800697473206D656E7500476F696E67207455
:1026D8006F2063726564697473206D656E75004759
:1026E8006F696E67206261636B20746F206D61692A
:1026F8006E206D656E75002564206973206E6F7499
:1027080020616E20617661696C61626C6520636826
:102718006F697365207965740A00676F696E672051
:10272800757000676F696E6720646F776E00636805
:102738006F6F73696E67206F7074696F6E00666C77
:10274800616767670069642073656E642025640AA1
:102758000D006C6F7720726561642025640A0D0096
:1027680072656164206C656E6774682025640A0D63
:0227780000005F
:00000001FF
