:100000000C9460030C947D030C94FC040C947D030D
:100010000C947D030C947D030C947D030C947D0360
:100020000C947D030C947D030C947D030C947D0350
:100030000C947D030C947D030C947D030C947D0340
:100040000C947D030C9451050C947D030C947D035A
:100050000C947D030C947D030C947D030C947D0320
:100060000C947D030C947D030C947D030C947D0310
:1000700000000000005C00000C000C007C287C28C4
:1000800058DC68002410480028542840000C000068
:10009000007884008478000054385400107C1000EC
:1000A00080400000101010000040000060100C00A4
:1000B00038543800487C40004864580044542C00B0
:1000C0001C107C005C5424003854240064140C0080
:1000D00068542C0048543800004800008048000054
:1000E0001028440028282800442810000454080040
:1000F00038445C00781478007C5428003844280088
:100100007C4438007C5444007C140400384474005F
:100110007C107C00447C440020403C007C106C003F
:100120007C4040007C187C0078103C00384438004B
:100130007C1408003844B8007C146800485424003B
:10014000047C04007C407C003C603C007C307C00F3
:100150006C106C000C700C0064544C00007C44006B
:100160000C106000447C00000804080080808000BF
:1001700000040800304878007C48300030484800CF
:1001800030487C00306850001078140090A8780047
:100190007C08700050744000808074007C106800FF
:1001A000447C4000781078007808700030483000B7
:1001B000F82810003048F80078100800505828003F
:1001C000083C4800384078003840380078207800F3
:1001D0004830480098A0780048685800107884009B
:1001E000007C00008478100008040804000000006F
:1001F0000000005F00000007000700147F147F1458
:10020000242A7F2A1223130864623649552250009B
:1002100005030000001C2241000041221C00082AA6
:100220001C2A0808083E080800503000000808088A
:100230000808006060000020100804023E51494593
:100240003E00427F400042615149462141454B31C9
:100250001814127F1027454545393C4A4949300159
:10026000710905033649494936064949291E0036B0
:100270003600000056360000000814224114141401
:10028000141441221408000201510906324979412F
:100290003E7E1111117E7F494949363E414141223E
:1002A0007F4141221C7F494949417F090901013EA3
:1002B000414151327F0808087F00417F41002040C2
:1002C000413F017F081422417F404040407F0204AB
:1002D000027F7F0408107F3E4141413E7F090909AA
:1002E000063E4151215E7F09192946464949493157
:1002F00001017F01013F4040403F1F2040201F7F00
:100300002018207F631408146303047804036151E8
:1003100049454300007F4141020408102041417FCC
:100320000000040201020440404040400001020479
:100330000020545454787F4844443838444444207E
:10034000384444487F3854545418087E0901020840
:100350001454543C7F0804047800447D400020403D
:10036000443D00007F10284400417F40007C041879
:1003700004787C0804047838444444387C14141409
:1003800008081414187C7C080404084854545420A9
:10039000043F4440203C4040207C1C2040201C3C2A
:1003A0004030403C44281028440C5050503C446499
:1003B000544C44000836410000007F0000004136E4
:1003C000080002010302010000000000000000001C
:1003D000065F5F0600000000070700070700001423
:1003E0007F7F147F7F1400242E6B6B3A120000462F
:1003F0006630180C666200307A4F5D377A48000428
:1004000007030000000000001C3E634100000000E4
:1004100041633E1C000000082A3E1C1C3E2A0808BE
:10042000083E3E0808000000A0E060000000000850
:100430000808080808000000006060000000006074
:1004400030180C060301003E7F594D7F3E000042EC
:10045000427F7F40400000627359496F660000226E
:100460006349497F360000181C16137F7F10002750
:100470006745457D3900003C7E4B497930000003DB
:100480006371190F070000367F49497F3600000667
:100490004F49693F1E000000006C6C000000000026
:1004A000A0EC6C00000000081C3663410000001442
:1004B00014141414140000004163361C08000002D8
:1004C0000351590F0600003E7F415D5D1F1E007CF9
:1004D0007E13137E7C0000417F7F49497F36001CDC
:1004E0003E634141632200417F7F41637F1C0041A5
:1004F0007F7F495D416300417F7F491D0103001CEF
:100500003E6341517372007F7F08087F7F000000C7
:10051000417F7F41000000307040417F3F0100413A
:100520007F7F081C776300417F7F41406070007FC0
:100530007F060C067F7F007F7F060C187F7F001CE4
:100540003E6341633E1C00417F7F49090F06001E48
:100550003F21717F5E0000417F7F19396F46002681
:10056000674D597B32000003417F7F410300007FCC
:100570007F40407F7F00001F3F60603F1F00007F83
:100580007F3018307F7F0063771C081C776300077B
:100590004F78784F0700006773594D47637100002B
:1005A0007F7F41410000000103060C18306000000D
:1005B00041417F7F000000080C0603060C08008004
:1005C000808080808080800000030704000000207D
:1005D0007454543C784000413F7F44447C38003898
:1005E0007C44446C280000307848493F7F40003804
:1005F0007C54545C180000487E7F49030200009838
:10060000BCA4A4F87C0400417F7F08047C7800002F
:10061000447D7D4000000040C484FD7D0000004119
:100620007F7F10386C440000417F7F400000007CD9
:100630007C0C180C7C78007C7C04047C78000038EE
:100640007C44447C38000084FCF8A4243C18001846
:100650003C24A4F8FC8400447C78441C1800004826
:100660005C54547424000000043E7F442400003C89
:100670007C40403C7C40001C3C60603C1C00003CDA
:100680007C6030607C3C00446C3810386C44009CCA
:10069000BCA0A0FC7C00004C64745C4C64000008AE
:1006A000083E7741410000000000777700000041DC
:1006B00041773E0808000002030103020301000025
:1006C00011241FBECFEFD4E0DEBFCDBF13E0A0E00A
:1006D000B1E0EEE5FCE102C005900D92AA34B1074D
:1006E000D9F723E0AAE4B3E001C01D92A336B20714
:1006F000E1F70E941D040C942D0E0C94000081E182
:1007000091E00E94B70985B7806885BF80B7806295
:1007100080BF08950E942D048F5F0E94290486E205
:1007200091E00E94B70908950E94790420E030E129
:1007300083E6C0E0D2E1A0E0B4E140E058E1F90195
:100740008083F2E5FA95F1F7888394EA9A95F1F7B8
:100750008C93E5EFF0E03197F1F700C00000FA016B
:100760008083E3E3F1E03197F1F7E9CF0F2EF4E373
:10077000EF2EF1E0FF2EF02D0AE511E0CBE9D1E0FC
:100780000E949806C82ED92E0E94CE069F938F9362
:100790001F92CF92FF92EF920E94A1090E94D2066F
:1007A0009F938F931F92DF921F930F930E94A10933
:1007B00080E090E00E9476062DB73EB7245F3F4F61
:1007C0000FB6F8943EBF0FBE2DBF892B21F082E7F4
:1007D00091E00E94B70981E090E00E947606892BA3
:1007E00021F082E891E00E94B70982E090E00E9447
:1007F0007606892B21F08EE891E00E94B7090E94CD
:100800009D069F938F93DF93CF930E94A1098CEA5B
:1008100091E00E94B7099FEF2FEF3EE091502040FA
:100820003040E1F700C000000F900F900F900F9044
:10083000A7CF81E40E949807FCCF60E070E08BE4D2
:1008400090E00E9431040E947F030E94FD060E94F6
:1008500019045D9BFECF8CB908955F9BFECF8CB1D0
:100860000895CF92DF92EF92FF926B017C0183E0BB
:1008700092E00E94B7092FE38DE093E02150804081
:100880009040E1F700C00000C701B60120E038E564
:1008900042E050E00E94DB07215010BC29B988E1FA
:1008A0008AB98EE880BD6DE274E089E294E00E942E
:1008B0005609FF90EF90DF90CF900895A09AA89AE4
:1008C0000895A8980895A89A08950E94610483EC59
:1008D00099E00197F1F700C000000E9463049FE3D4
:1008E0002DE083E0915020408040E1F700C00000FF
:1008F0000895CF92DF92EF92FF920F931F93CF93C1
:10090000DF9382E192E00E94B7090E9446097C01D0
:100910000E944B09C12CD12CC0E0D0E008E212E0CB
:100920000E944609F601F85E808320812817A1F015
:1009300099279F938F931F922F93DF92CF921F93AC
:100940000F930E94A10921968DB79EB708960FB606
:10095000F8949EBF0FBE8DBF9FEFC91AD90AC1146C
:1009600088E0D806E9F6C7010E944B0900E010E0D4
:10097000E12CF12C0F2EF1E6CF2EF2E0DF2EF02D40
:100980000E944609F801F85E20812817B1F09927E6
:100990009F938F931F922F931F930F93DF92CF926A
:1009A0000E94A1099FEFE91AF90A8DB79EB7089630
:1009B0000FB6F8949EBF0FBE8DBF0F5F1F4F01157E
:1009C00098E01907E9F6FF92EF92DF93CF938EE953
:1009D00092E09F938F930E94A1090F900F900F9028
:1009E0000F900F900F90DF91CF911F910F91FF907B
:1009F000EF90DF90CF9008951F920F920FB60F9255
:100A000011248F93EF93FF93E0910001F091010186
:100A1000808180934E03FF91EF918F910F900FBED5
:100A20000F901F90189587EF92E00E94B7092FE36F
:100A30008DE093E0215080409040E1F700C000003D
:100A40008B98939AF89485B7886085BF85B78B7F1C
:100A500085BF8BB780688BBF7894089580914E03D3
:100A600008958130910539F098F08230910591F028
:100A7000039719F004C085E00EC087E00CC085E044
:100A800093E09F938F930E94A1090F900F90089578
:100A900084E001C086E0E0910001F09101018083D3
:100AA00008951F920F920FB60F9211242F933F9328
:100AB0004F935F936F937F938F939F93AF93BF9366
:100AC000EF93FF930E942E0520914F033091500326
:100AD00021303105B9F148F02230310509F45FC009
:100AE0002330310509F476C090C02091580399272E
:100AF000AC01421B510927FD53959A0144E6429FE0
:100B0000C001439F900D11246FEF70E00E94C70752
:100B1000072E000C880B990B0E9449080E94AD0813
:100B20000E9411089B01772324F422273327261BD8
:100B3000370B2093510381E090E090935003809312
:100B40004F036CC0209156039927AC01421B5109F9
:100B500027FD53959A0144E6429FC001439F900DA3
:100B600011246FEF70E00E94C707072E000C880B5E
:100B7000990B0E9449080E94AD080E9411089B0130
:100B8000772324F422273327261B370B2093520385
:100B900082E090E09093500380934F033FC054E66F
:100BA000859FC00111246FEF70E00E94C707072ED8
:100BB000000C880B990B0E9449080E94AD080E9406
:100BC00011086093540383E090E090935003809366
:100BD0004F0324C024E6829FC00111246FEF70E010
:100BE0000E94C707072E000C880B990B0E9449082A
:100BF0000E94AD080E9411086093550310925003A3
:100C000010924F0380E090E009C085E093E09F934D
:100C10008F930E94A1090F900F9002C00E9431058E
:100C2000FF91EF91BF91AF919F918F917F916F91C4
:100C30005F914F913F912F910F900FBE0F901F909A
:100C4000189580E090E00E94310589EF90E00197CF
:100C5000F1F700C000000E942E058F5780935803C3
:100C600081E090E00E94310589EF90E00197F1F773
:100C700000C000000E942E058F57809356039FEB03
:100C800027E289E0915020408040E1F700C0000059
:100C90000895CF93DF93EC0187E193E00E94B709B9
:100CA0002FE38DE093E0215080409040E1F700C0B9
:100CB0000000B898C09AB998BA980E94210680E0BE
:100CC00090E00E943105F89482E089BFC11521E0CF
:100CD000D20719F484E083BF05C0C115D44011F4D4
:100CE00085E083BF7894DF91CF910895813091059D
:100CF00059F018F0029761F00FC096B381E0892790
:100D0000282F217030E012C026B3247030E00EC0CE
:100D100026B3227030E00AC08AE293E09F938F935B
:100D20000E94A1090F900F9021E030E0C9010895C1
:100D300080915103909152030895E1E5F3E07081B1
:100D40006181872F90E0C297AC0122F44427552798
:100D5000481B590B862F90E0C2979C0122F4222752
:100D60003327281B390B421753073CF07D3268F0BC
:100D7000783370F480E090E008956D3260F081E0A7
:100D800090E0683350F480E0089584E090E00895A6
:100D900083E090E0089582E090E00895809154030C
:100DA00090E008958091550390E008958130910579
:100DB00039F050F0029759F484E0809302010895CD
:100DC00085E080930201089588E0809302010895F0
:100DD000E0910301F0910401808308958093001253
:100DE0000895E0910301F091040190E29083E09175
:100DF0000301F0910401808308958BE393E00E9446
:100E0000B709E0910301F09104018EEA8083E0913B
:100E10000301F091040181EA8083E0910301F091E4
:100E200004018AED8083E0910301F091040182E1E5
:100E30008083E0910301F091040188EC8083E091CC
:100E40000301F091040188EA8083E0910301F091AD
:100E500004018FE38083E0910301F091040185EDAB
:100E60008083E0910301F091040180E88083E091A8
:100E70000301F091040181E88083E0910301F09186
:100E8000040180E58083E0910301F091040189ED84
:100E90008083E0910301F091040181E28083E0917D
:100EA0000301F091040180E28083E0910301F0915D
:100EB000040182E08083E0910301F09104018BED55
:100EC0008083E0910301F091040180E38083E0914D
:100ED0000301F09104018DEA8083E0910301F09118
:100EE00004011082E0910301F091040184EA8083FF
:100EF000E0910301F091040186EA8083E09103010F
:100F0000F09104018FEA8083089508950895873051
:100F100048F090E090934B0380934A0382E090E086
:100F20000E94F1060895089508950E948707089584
:100F3000CF93DF93805290910201992329F190E0A1
:100F4000682F70E0660F771F660F771F660F771F99
:100F5000C0E0D2E1AAE4B3E0FB01E90FF11DE953DF
:100F6000FC4FE491E8834091020112962D913C914F
:100F70001397240F311D13963C932E9312979F5F66
:100F800020910201921740F3DF91CF91089597FBD2
:100F9000072E16F4009407D077FD09D00E94FD07B4
:100FA00007FC05D03EF4909581959F4F089570956C
:100FB00061957F4F0895A1E21A2EAA1BBB1BFD016C
:100FC0000DC0AA1FBB1FEE1FFF1FA217B307E40728
:100FD000F50720F0A21BB30BE40BF50B661F771F80
:100FE000881F991F1A9469F7609570958095909560
:100FF0009B01AC01BD01CF010895AA1BBB1B51E1B0
:1010000007C0AA1FBB1FA617B70710F0A61BB70B78
:10101000881F991F5A95A9F780959095BC01CD011D
:1010200008950E9418086894B1110C94A7080895B7
:101030000E948C0888F09F5798F0B92F9927B751D4
:10104000B0F0E1F0660F771F881F991F1AF0BA956C
:10105000C9F714C0B13091F00E94A608B1E008951C
:101060000C94A608672F782F8827B85F39F0B93F0E
:10107000CCF3869577956795B395D9F73EF490951F
:101080008095709561957F4F8F4F9F4F0895E8949D
:1010900009C097FB3EF490958095709561957F4FC0
:1010A0008F4F9F4F9923A9F0F92F96E9BB2793956E
:1010B000F695879577956795B795F111F8CFFAF47E
:1010C000BB0F11F460FF1BC06F5F7F4F8F4F9F4FAF
:1010D00016C0882311F096E911C0772321F09EE80D
:1010E000872F762F05C0662371F096E8862F70E073
:1010F00060E02AF09A95660F771F881FDAF7880F4D
:101100009695879597F9089557FD9058440F551F68
:1011100059F05F3F71F04795880F97FB991F61F079
:101120009F3F79F087950895121613061406551FF0
:10113000F2CF4695F1DF08C0161617061806991F5C
:10114000F1CF86957105610508940895E894BB2751
:1011500066277727CB0197F908950E948C08E8F05D
:101160009E37E8F09639B8F49E3848F4672F782F08
:101170008827985FF9CF86957795679593959539E8
:10118000D0F3B62FB1706B0F711D811D20F48795C0
:101190007795679593950C94D1080C94EC080C9472
:1011A000A708882371F4772321F09850872B762F96
:1011B00007C0662311F499270DC09051862B70E06B
:1011C00060E02AF09A95660F771F881FDAF7880F7C
:1011D0009695879597F908959F3F31F0915020F4A7
:1011E000879577956795B795880F911D9695879503
:1011F00097F908958F929F92AF92BF92CF92DF920C
:10120000EF92FF92CF93DF93EC01688179818A811D
:101210009B81611571058105910521F464E279EDE9
:101220008BE597E02DE133EF41E050E00E94B50DF2
:1012300049015A019B01AC01A7EAB1E40E94D40D17
:101240006B017C01ACEEB4EFA50194010E94E20DAC
:10125000DC01CB018C0D9D1DAE1DBF1DB7FF03C072
:101260000197A109B04888839983AA83BB839F779C
:10127000DF91CF91FF90EF90DF90CF90BF90AF9034
:101280009F908F9008950E94FA08089587E091E05A
:101290000E94FA080895A0E0B0E0809307019093BF
:1012A0000801A0930901B0930A0108950F931F93B9
:1012B000CF93DF93009731F46115710519F480E045
:1012C00090E03AC08B01EC016EE070E081E090E0CC
:1012D0000E94B90BFC01892B91F380E883830115EF
:1012E000110571F01387028781E883838091590388
:1012F00090915A03892B21F4F0935A03E0935903F8
:101300002097C9F0D187C0878381826083838091D1
:101310005B0390915C03892B71F4F0935C03E09381
:101320005B0380915D0390915E03892B21F4F09320
:101330005E03E0935D03CF01DF91CF911F910F9189
:101340000895A0E0B0E0E7EAF9E00C94F70DAE01F3
:101350004B5F5F4FFA0161917191AF0180915B0327
:1013600090915C030E94E709E2E00C94130E0F9346
:101370001F93CF93DF93E0915B03F0915C03238194
:1013800021FF1BC08C01D0E0C0E0F80181918F01EA
:1013900060915B0370915C03DB011896ED91FC9109
:1013A0001997882331F00995892B79F3DFEFCFEF77
:1013B000ECCF8AE00995892B19F08FEF9FEF02C0DF
:1013C0008D2F9C2FDF91CF911F910F910895ACE04D
:1013D000B0E0EDEEF9E00C94E70D7C016B018A01C1
:1013E000FC0117821682838181FFBDC1CE01019667
:1013F0004C01F7019381F60193FD859193FF819153
:101400006F01882309F4ABC1853239F493FD8591CE
:1014100093FF81916F01853229F4B70190E00E941A
:101420001F0DE7CF512C312C20E02032A0F48B325D
:1014300069F030F4803259F0833269F420612CC0B5
:101440008D3239F0803339F4216026C02260246067
:1014500023C0286021C027FD27C030ED380F3A3067
:1014600078F426FF06C0FAE05F9E300D1124532E5B
:1014700013C08AE0389E300D1124332E20620CC038
:101480008E3221F426FD6BC1206406C08C3611F427
:10149000206802C0883641F4F60193FD859193FFE0
:1014A00081916F018111C1CF982F9F7D9554933009
:1014B00028F40C5F1F4FFFE3F9830DC0833631F032
:1014C000833771F0833509F05BC022C0F801808159
:1014D00089830E5F1F4F44244394512C540115C03F
:1014E0003801F2E06F0E711CF801A080B18026FF78
:1014F00003C0652D70E002C06FEF7FEFC5012C8740
:101500000E94140D2C0183012C852F77222E17C0E9
:101510003801F2E06F0E711CF801A080B18026FF47
:1015200003C0652D70E002C06FEF7FEFC5012C870F
:101530000E94020D2C012C852068222E830123FCA1
:101540001BC0832D90E048165906B0F4B70180E225
:1015500090E00E941F0D3A94F4CFF50127FC85918D
:1015600027FE81915F01B70190E00E941F0D3110AD
:101570003A94F1E04F1A51084114510471F7E5C053
:10158000843611F0893639F5F80127FF07C06081EC
:101590007181828193810C5F1F4F08C060817181CE
:1015A000072E000C880B990B0E5F1F4F2F76722EA3
:1015B00097FF09C090958095709561957F4F8F4FEB
:1015C0009F4F2068722E2AE030E0A4010E94570D40
:1015D000A82EA81844C0853729F42F7EB22E2AE001
:1015E00030E025C0F22FF97FBF2E8F36C1F018F4FE
:1015F000883579F0B4C0803719F0883721F0AFC052
:101600002F2F2061B22EB4FE0DC08B2D8460B82E1A
:1016100009C024FF0AC09F2F9660B92E06C028E09B
:1016200030E005C020E130E002C020E132E0F80106
:10163000B7FE07C060817181828193810C5F1F4F6B
:1016400006C06081718180E090E00E5F1F4FA401B1
:101650000E94570DA82EA818FB2DFF777F2E76FE2F
:101660000BC0372D3E7FA51450F474FE0AC072FCE7
:1016700008C0372D3E7E05C0BA2C372D03C0BA2CCA
:1016800001C0B52C34FF0DC0FE01EA0DF11D8081B3
:10169000803311F4397E09C032FF06C0B394B3948D
:1016A00004C0832F867809F0B39433FD13C030FF54
:1016B00006C05A2CB31418F4530C5B18B32CB31493
:1016C00068F4B70180E290E03C870E941F0DB3945C
:1016D0003C85F5CFB31410F43B1801C0312C34FF16
:1016E00012C0B70180E390E03C870E941F0D3C854B
:1016F00032FF17C031FD03C088E790E002C088E5E3
:1017000090E0B7010CC0832F867859F031FF02C0FA
:101710008BE201C080E237FD8DE2B70190E00E94CC
:101720001F0DA51438F4B70180E390E00E941F0D4F
:101730005A94F7CFAA94F401EA0DF11D8081B70104
:1017400090E00E941F0DA110F5CF332009F451CE77
:10175000B70180E290E00E941F0D3A94F6CFF701A6
:101760008681978102C08FEF9FEF2C96E2E10C9467
:10177000030E0F931F93CF93DF93869F8001879F64
:10178000100D969F100D1124C8010E94D50BEC017D
:10179000009729F0A80160E070E00E940D0DCE01D5
:1017A000DF91CF911F910F910895CF93DF938230F6
:1017B000910510F482E090E0E0916103F091620302
:1017C00020E030E0C0E0D0E0309711F1408151815D
:1017D00048175907C0F04817590761F4828193816F
:1017E000209719F09B838A832BC090936203809388
:1017F000610326C02115310519F04217530718F46B
:101800009A01BE01DF01EF010280F381E02DDCCF00
:101810002115310509F1281B390B2430310590F4CD
:1018200012968D919C9113976115710521F0FB0122
:101830009383828304C09093620380936103FD01CC
:10184000329644C0FD01E20FF31F81939193225021
:1018500031092D933C933AC020915F03309160038E
:10186000232B41F420910D0130910E013093600340
:1018700020935F0320910B0130910C01211531055C
:1018800041F42DB73EB740910F0150911001241B38
:10189000350BE0915F03F0916003E217F307A0F4CA
:1018A0002E1B3F0B2817390778F0AC014E5F5F4FB6
:1018B0002417350748F04E0F5F1F50936003409385
:1018C0005F038193919302C0E0E0F0E0CF01DF91EC
:1018D000CF9108950F931F93CF93DF93009709F44F
:1018E0008CC0FC0132971382128200916103109127
:1018F00062030115110581F420813181820F931F4C
:1019000020915F03309160032817390779F5F09330
:101910006003E0935F0371C0D80140E050E0AE1770
:10192000BF0750F412962D913C911397AD012115EC
:10193000310509F1D901F3CF9D01DA013383228307
:1019400060817181860F971F8217930769F4EC01FC
:1019500028813981260F371F2E5F3F4F3183208327
:101960008A819B8193838283452B29F4F0936203C0
:10197000E093610342C01396FC93EE931297ED013E
:10198000499159919E01240F351FE217F30771F415
:1019900080819181840F951F029611969C938E935E
:1019A0008281938113969C938E931297E0E0F0E0EE
:1019B000D80112968D919C911397009719F0F80118
:1019C0008C01F6CF8D919C9198012E5F3F4F820F35
:1019D000931F20915F03309160032817390769F442
:1019E000309729F4109262031092610302C01382AF
:1019F00012821093600300935F03DF91CF911F91D8
:101A00000F910895FC010590615070400110D8F7C6
:101A1000809590958E0F9F1F0895DC0101C06D93F6
:101A200041505040E0F70895FC0161507040019032
:101A30000110D8F7809590958E0F9F1F08950F93F2
:101A40001F93CF93DF93FB01238121FD03C08FEF11
:101A50009FEF28C022FF16C046815781248135811F
:101A60004217530744F4A081B1819D012F5F3F4F7E
:101A7000318320838C93268137812F5F3F4F3783BB
:101A8000268310C0EB01092F182F0084F185E02D6B
:101A90000995892BE1F68E819F8101969F838E8324
:101AA000812F902FDF91CF911F910F910895FA010F
:101AB000AA27283051F1203181F1E8946F936E7F8D
:101AC0006E5F7F4F8F4F9F4FAF4FB1E03ED0B4E07E
:101AD0003CD0670F781F891F9A1FA11D680F791FBF
:101AE0008A1F911DA11D6A0F711D811D911DA11DD0
:101AF00020D009F468943F912AE0269F11243019E0
:101B0000305D3193DEF6CF010895462F4770405D7A
:101B10004193B3E00FD0C9F7F6CF462F4F70405D29
:101B20004A3318F0495D31FD4052419302D0A9F784
:101B3000EACFB4E0A6959795879577956795BA957E
:101B4000C9F700976105710508959B01AC010A2E44
:101B500006945795479537952795BA95C9F7620F1B
:101B6000731F841F951FA01D0895052E97FB1EF45B
:101B700000940E94CC0D57FD07D00E94DB0707FCA4
:101B800003D04EF40C94CC0D509540953095219592
:101B90003F4F4F4F5F4F0895909580957095619599
:101BA0007F4F8F4F9F4F08950E941E0EA59F900D4F
:101BB000B49F900DA49F800D911D11240895B7FF2F
:101BC0000C94D40D0E94D40D821B930B08952F9278
:101BD0003F924F925F926F927F928F929F92AF92BD
:101BE000BF92CF92DF92EF92FF920F931F93CF930A
:101BF000DF93CDB7DEB7CA1BDB0B0FB6F894DEBFA1
:101C00000FBECDBF09942A88398848885F846E84C6
:101C10007D848C849B84AA84B984C884DF80EE8010
:101C2000FD800C811B81AA81B981CE0FD11D0FB619
:101C3000F894DEBF0FBECDBFED010895A29FB001A5
:101C4000B39FC001A39F700D811D1124911DB29FF0
:0E1C5000700D811D1124911D0895F894FFCF91
:101C5E0000140800100012010000000000630320B1
:101C6E00006D656D6F72795F6C61796F75745F6908
:101C7E006E69742829000A68656C6C6F20776F7224
:101C8E006C6421004A6F79737469636B3A2009782A
:101C9E003A202564200909536C696465723A096C0F
:101CAE006566743A202564200A000909793A2025D0
:101CBE00642009090972696768743A202564200A4C
:101CCE000A004A4F59535449434B20425554544FDE
:101CDE004E004C45465420425554544F4E005249E6
:101CEE0047485420425554544F4E000A4469726579
:101CFE006374696F6E3A2025640A0A002D202D2028
:101D0E002D202D202D202D202D202D202D202D205D
:101D1E002D202D202D202D202D202D202D202D204D
:101D2E002D202D202D202D202D202D202D202D203D
:101D3E002D202D202D202D202D202D202D202D202D
:101D4E002D202D202D202D202D202D202D202D201D
:101D5E002D0A00554152545F696E697428292E2E42
:101D6E002E005374617274696E67205352414D2078
:101D7E00746573742E2E2E00577269746520706808
:101D8E00617365206572726F723A206578745F7246
:101D9E00616D5B2534645D203D202530325820284E
:101DAE0073686F756C642062652025303258290A7D
:101DBE000052657472696576616C20706861736536
:101DCE00206572726F723A206578745F72616D5B16
:101DDE002534645D203D2025303258202873686FED
:101DEE00756C642062652025303258290A005352E2
:101DFE00414D207465737420636F6D706C657465EE
:101E0E00642077697468200A253464206572726FC5
:101E1E00727320696E2077726974652070686173C1
:101E2E006520616E64200A253464206572726F72BB
:101E3E007320696E2072657472696576616C2070AC
:101E4E00686173650A0A004144435F696E697428CC
:101E5E00292E2E2E004E6F742076616C69642063DD
:101E6E0068616E6E656C006A6F79737469636B5F1F
:101E7E00696E697428292E2E2E004E6F742076619D
:101E8E006C696420627574746F6E004F4C4544200B
:0A1E9E00696E697428292E2E2E00AB
:00000001FF
