:100000000C94E5030C94970D0C9485060C94020453
:100010000C9402040C9402040C9402040C94020448
:100020000C9402040C9402040C9402040C94020438
:100030000C9402040C9402040C9402040C94020428
:100040000C9402040C94DE060C9402040C9402043A
:100050000C9402040C9402040C9402040C94020408
:100060000C9402040C9402040C9402040C940204F8
:1000700000000000005C00000C000C007C287C28C4
:1000800058DC68002410480028542840000C000068
:10009000007884008478000054385400107C1000EC
:1000A00080400000101010000040000060100C00A4
:1000B00038543800487C40004864580044542C00B0
:1000C0001C107C005C5424003854240064140C0080
:1000D00068542C0048543800004800008048000054
:1000E0001028440028282800442810000454080040
:1000F00038445C00781478007C5428003844280088
:100100007C4438007C5444007C140400384474005F
:100110007C107C00447C440020403C007C106C003F
:100120007C4040007C187C0078103C00384438004B
:100130007C1408003844B8007C146800485424003B
:10014000047C04007C407C003C603C007C307C00F3
:100150006C106C000C700C0064544C00007C44006B
:100160000C106000447C00000804080080808000BF
:1001700000040800304878007C48300030484800CF
:1001800030487C00306850001078140090A8780047
:100190007C08700050744000808074007C106800FF
:1001A000447C4000781078007808700030483000B7
:1001B000F82810003048F80078100800505828003F
:1001C000083C4800384078003840380078207800F3
:1001D0004830480098A0780048685800107884009B
:1001E000007C00008478100008040804000000006F
:1001F0000000005F00000007000700147F147F1458
:10020000242A7F2A1223130864623649552250009B
:1002100005030000001C2241000041221C00082AA6
:100220001C2A0808083E080800503000000808088A
:100230000808006060000020100804023E51494593
:100240003E00427F400042615149462141454B31C9
:100250001814127F1027454545393C4A4949300159
:10026000710905033649494936064949291E0036B0
:100270003600000056360000000814224114141401
:10028000141441221408000201510906324979412F
:100290003E7E1111117E7F494949363E414141223E
:1002A0007F4141221C7F494949417F090901013EA3
:1002B000414151327F0808087F00417F41002040C2
:1002C000413F017F081422417F404040407F0204AB
:1002D000027F7F0408107F3E4141413E7F090909AA
:1002E000063E4151215E7F09192946464949493157
:1002F00001017F01013F4040403F1F2040201F7F00
:100300002018207F631408146303047804036151E8
:1003100049454300007F4141020408102041417FCC
:100320000000040201020440404040400001020479
:100330000020545454787F4844443838444444207E
:10034000384444487F3854545418087E0901020840
:100350001454543C7F0804047800447D400020403D
:10036000443D00007F10284400417F40007C041879
:1003700004787C0804047838444444387C14141409
:1003800008081414187C7C080404084854545420A9
:10039000043F4440203C4040207C1C2040201C3C2A
:1003A0004030403C44281028440C5050503C446499
:1003B000544C44000836410000007F0000004136E4
:1003C000080002010302010000000000000000001C
:1003D000065F5F0600000000070700070700001423
:1003E0007F7F147F7F1400242E6B6B3A120000462F
:1003F0006630180C666200307A4F5D377A48000428
:1004000007030000000000001C3E634100000000E4
:1004100041633E1C000000082A3E1C1C3E2A0808BE
:10042000083E3E0808000000A0E060000000000850
:100430000808080808000000006060000000006074
:1004400030180C060301003E7F594D7F3E000042EC
:10045000427F7F40400000627359496F660000226E
:100460006349497F360000181C16137F7F10002750
:100470006745457D3900003C7E4B497930000003DB
:100480006371190F070000367F49497F3600000667
:100490004F49693F1E000000006C6C000000000026
:1004A000A0EC6C00000000081C3663410000001442
:1004B00014141414140000004163361C08000002D8
:1004C0000351590F0600003E7F415D5D1F1E007CF9
:1004D0007E13137E7C0000417F7F49497F36001CDC
:1004E0003E634141632200417F7F41637F1C0041A5
:1004F0007F7F495D416300417F7F491D0103001CEF
:100500003E6341517372007F7F08087F7F000000C7
:10051000417F7F41000000307040417F3F0100413A
:100520007F7F081C776300417F7F41406070007FC0
:100530007F060C067F7F007F7F060C187F7F001CE4
:100540003E6341633E1C00417F7F49090F06001E48
:100550003F21717F5E0000417F7F19396F46002681
:10056000674D597B32000003417F7F410300007FCC
:100570007F40407F7F00001F3F60603F1F00007F83
:100580007F3018307F7F0063771C081C776300077B
:100590004F78784F0700006773594D47637100002B
:1005A0007F7F41410000000103060C18306000000D
:1005B00041417F7F000000080C0603060C08008004
:1005C000808080808080800000030704000000207D
:1005D0007454543C784000413F7F44447C38003898
:1005E0007C44446C280000307848493F7F40003804
:1005F0007C54545C180000487E7F49030200009838
:10060000BCA4A4F87C0400417F7F08047C7800002F
:10061000447D7D4000000040C484FD7D0000004119
:100620007F7F10386C440000417F7F400000007CD9
:100630007C0C180C7C78007C7C04047C78000038EE
:100640007C44447C38000084FCF8A4243C18001846
:100650003C24A4F8FC8400447C78441C1800004826
:100660005C54547424000000043E7F442400003C89
:100670007C40403C7C40001C3C60603C1C00003CDA
:100680007C6030607C3C00446C3810386C44009CCA
:10069000BCA0A0FC7C00004C64745C4C64000008AE
:1006A000083E7741410000000000777700000041DC
:1006B00041773E0808000002030103020301000322
:1006C000010201E306DF06DB06D706D306D30635B3
:1006D0002E2000342E2000332E2000322E20003118
:1006E0002E20004261636B20546F204D61696E20A3
:1006F0004D656E75004869676873636F7265003792
:10070000072E07210712070907537472696B657377
:100710003A00537572766976616C2054696D653A5A
:10072000004261636B20546F204D61696E004E651D
:10073000772047616D650053746172742F50617545
:1007400073652047616D650050696E676973007C51
:1007500007700760075707556E69636F726E730005
:100760004D69636861656C204D756C6C696E7300D2
:100770004576656E2057616E76696B004261636BEA
:1007800020746F204D61696E204D656E7500437257
:10079000656469747300AE07A4079C0743726564BF
:1007A000697473004869676873636F726500506CA1
:1007B00061792047616D65004D61696E206D656EE0
:1007C000750057656C636F6D650011241FBECFEF18
:1007D000D4E0DEBFCDBF15E0A0E0B1E0EAE9FFE282
:1007E00002C005900D92A831B107D9F729E0A8E120
:1007F000B5E001C01D92AE34B207E1F70E94A30537
:100800000C94CB170C94000081E191E00E945F14DE
:100810002FEF8FEF9EE0215080409040E1F700C025
:10082000000085B7806885BF80B7806280BF08956B
:100830000E94B4058F5F0E94B0058FE291E00E9494
:100840005F1408950E940206C0E00F2EFDE3EF2E14
:10085000F1E0FF2EF02DA12C6894BB24B4F80F2EEC
:10086000F3E62F2EF02D0AE411E00F2EC12CF2E159
:10087000DF2EF02D0F2E812CF4E19F2EF02D0F2E68
:10088000F0E66F2EF1E07F2EF02D0F2E412CF8E1D7
:100890005F2EF02D1F92CF93FF92EF920E9449148A
:1008A000D5012C92B2E5BA95F1F781E08C0F1F9239
:1008B0008F931F930F930E944914F6012082F4EA4C
:1008C000FA95F1F782E08C0F1F928F93A8E5B1E0C3
:1008D000BF93AF930E944914D4012C92E5EFF0E04E
:1008E0003197F1F700C000008DB79EB70C960FB698
:1008F000F8949EBF0FBE8DBF1F9283E08C0F8F9325
:10090000CC5F7F926F920E944914D2012C92E3E354
:10091000F1E03197F1F70F900F900F900F90BACF51
:100920000F2EF9E6EF2EF1E0FF2EF02D0FE811E08B
:10093000C0EDD1E00E942508C82ED92E0E945B0888
:100940009F938F931F92CF92FF92EF920E94491430
:100950000E945F089F938F931F92DF921F930F93C4
:100960000E94491480E090E00E9403082DB73EB732
:10097000245F3F4F0FB6F8943EBF0FBE2DBF892BAB
:1009800021F087EA91E00E945F1481E090E00E94EC
:100990000308892B21F087EB91E00E945F1482E02D
:1009A00090E00E940308892B21F083EC91E00E94E3
:1009B0005F140E942A089F938F93DF93CF930E9426
:1009C000491481EE91E00E945F149FEF2FEF3EE00B
:1009D000915020403040E1F700C000000F900F9090
:1009E0000F900F90A7CF0E94690CFDCF8BE090E095
:1009F0000E9475126C018BE090E00E9475128C01D0
:100A000088E0F60182838281882351F080E0F6013C
:100A1000E80FF11D83838F5FF60192818917B8F388
:100A200083E090E0F60191838083808191819F93A0
:100A30008F9388E392E09F938F930E9449140F90C5
:100A40000F900F900F90D0E00F2EF1E4EF2EF2E018
:100A5000FF2EF02DC6010E94DF0DFFEF2FEF8EE07D
:100A6000F15020408040E1F700C00000C8010E9422
:100A70002D0EF8018281882369F3CD2FF801EC0F48
:100A8000F11D9381292F092E000C330B3F939F9367
:100A9000FF92EF920E944914CF5FF80192810F906C
:100AA0000F900F900F90C91748F3D4CF8BE090E0D0
:100AB0000E947512EC0182E08A831B821C82EE2464
:100AC000E394F12C6894DD24D1F806E412E0F98275
:100AD000E8820E942508DA828B839C8328813981F1
:100AE0001F929F931F928F933F932F931F930F9368
:100AF0000E944914CE010E94DF0D80E090EF019723
:100B0000F1F78DB79EB708960FB6F8949EBF0FBE4B
:100B10008DBFDDCF40E050E060E070E08BE490E01E
:100B20000E94B8050E9404040E949C0680E094E0A4
:100B30000E94D6070E942E0D0E94A60D0E94E80872
:100B40000E94DD0C08950E948A058BE692E09F9337
:100B50008F930E9449140E942F110F900F900895B7
:100B60005D9BFECF8CB908955F9BFECF8CB108953D
:100B7000CF93DF93EA0120E038E542E050E00E94A5
:100B80005611215010BC29B988E18AB9CD2B19F42E
:100B90008EE880BD02C08EE080BD64EB75E080EB26
:100BA00095E00E94FE1381E792E09F938F930E944D
:100BB00049142FE38DE093E0215080409040E1F70D
:100BC00000C000000F900F90DF91CF910895A09A80
:100BD000A89A0895A8980895A89A08950E94EA05E9
:100BE00083EC99E00197F1F700C000000E94EC054A
:100BF0009FE32DE083E0915020408040E1F700C06A
:100C000000000895CF92DF92EF92FF920F931F930F
:100C1000CF93DF9381E992E00E945F140E94EE136C
:100C20007C010E94F313C12CD12CC0E0D0E007EA74
:100C300012E00E94EE13F601F85E808320812817EF
:100C4000A1F099279F938F931F922F93DF92CF92BA
:100C50001F930F930E94491421968DB79EB7089653
:100C60000FB6F8949EBF0FBE8DBF9FEFC91AD90A69
:100C7000C11488E0D806E9F6C7010E94F31300E02A
:100C800010E0E12CF12C0F2EF0EECF2EF2E0DF2E53
:100C9000F02D0E94EE13F801F85E20812817B1F0C4
:100CA00099279F938F931F922F931F930F93DF92F8
:100CB000CF920E9449149FEFE91AF90A8DB79EB7A7
:100CC00008960FB6F8949EBF0FBE8DBF0F5F1F4FE3
:100CD000011598E01907E9F6FF92EF92DF93CF93A1
:100CE0008DE193E09F938F930E9449140F900F9092
:100CF0000F900F900F900F90DF91CF911F910F9158
:100D0000FF90EF90DF90CF9008951F920F920FB653
:100D10000F9211248F93EF93FF93E0910001F091D4
:100D20000101808180931F05FF91EF918F910F90BA
:100D30000FBE0F901F90189586E793E09F938F93B7
:100D40000E9449142FE38DE093E0215080409040B1
:100D5000E1F700C000008B98939AF89485B78860FB
:100D600085BF85B78B7F85BF8BB780688BBF789435
:100D70000F900F90089580911F050895813091057F
:100D800039F098F08230910591F0039719F004C082
:100D900085E00EC087E00CC083E993E09F938F93BA
:100DA0000E9449140F900F90089584E001C086E0DE
:100DB000E0910001F0910101808308951F920F924C
:100DC0000FB60F9211242F933F934F935F936F931E
:100DD0007F938F939F93AF93BF93EF93FF930E9463
:100DE000BB06209120053091210521303105B9F154
:100DF00048F02230310509F45FC02330310509F491
:100E000076C090C0209129059927AC01421B510959
:100E100027FD53959A0144E6429FC001439F900DE0
:100E200011246FEF70E00E944211072E000C880B16
:100E3000990B0E94C4110E9428120E948C119B01E0
:100E4000772324F422273327261B370B20932205F0
:100E500081E090E090932105809320056CC0209163
:100E600027059927AC01421B510927FD53959A018B
:100E700044E6429FC001439F900D11246FEF70E044
:100E80000E944211072E000C880B990B0E94C4117E
:100E90000E9428120E948C119B01772324F42227A0
:100EA0003327261B370B2093230582E090E0909395
:100EB0002105809320053FC054E6859FC001112481
:100EC0006FEF70E00E944211072E000C880B990B07
:100ED0000E94C4110E9428120E948C116093250563
:100EE00083E090E0909321058093200524C024E6C0
:100EF000829FC00111246FEF70E00E944211072E03
:100F0000000C880B990B0E94C4110E9428120E94A9
:100F10008C1160932605109221051092200580E027
:100F200090E009C083E993E09F938F930E94491456
:100F30000F900F9002C00E94BE06FF91EF91BF91EB
:100F4000AF919F918F917F916F915F914F913F9161
:100F50002F910F900FBE0F901F90189580E090E09A
:100F60000E94BE0689EF90E00197F1F700C00000F3
:100F70000E94BB068F578093290581E090E00E9474
:100F8000BE0689EF90E00197F1F700C000000E94D3
:100F9000BB068F57809327059FEB27E289E091508E
:100FA00020408040E1F700C000000895CF93DF9318
:100FB000EC0185EA93E00E945F142FE38DE093E05B
:100FC000215080409040E1F700C00000B898C09ADE
:100FD000B998BA980E94AE0780E090E00E94BE06E1
:100FE000F89482E089BFC11521E0D20719F484E0AA
:100FF00083BF05C0C115D44011F485E083BF789448
:10100000DF91CF9108958130910559F018F0029742
:1010100061F00FC096B381E08927282F217030E05E
:1010200012C026B3247030E00EC026B3227030E028
:101030000AC085EC93E09F938F930E9449140F9010
:101040000F9021E030E0C901089580912205909130
:1010500023050895E2E2F5E070816181872F90E039
:10106000C297AC0122F444275527481B590B862F01
:1010700090E0C2979C0122F422273327281B390BCA
:101080004217530744F07D3268F081E090E07833F6
:1010900088F480E008956D3240F0683348F480E0D1
:1010A00090E0089582E090E0089584E090E0089553
:1010B00083E090E008958091250590E00895809167
:1010C000260590E00895E0910301F09104018083EA
:1010D0000895E0910501F091060180830895E09163
:1010E0000301F091040190E29083E0910301F091FB
:1010F000040180830895CF938830A8F4C82F90E02E
:10110000909319058093180582E090E00E946F0883
:10111000E0910301F091040180EB8C0F808380E06B
:1011200090E00E946F08CF910895CF938823FCF040
:10113000C82F82E090E00E946F088C2F90E090937F
:101140001B0580931A05E0910301F09104018C2F97
:101150008F708083E0910301F09104018C2F8295C0
:101160008F70805F808380E090E00E946F08CF9155
:10117000089580E00E947B0880E00E949508089511
:10118000CF93C62F0E947B088C2F0E949508CF9189
:101190000895CF93C82F60E00E94C00890E0E091CE
:1011A0000501F091060110829F5F9038C1F78C2FE6
:1011B0000E947B08CF910895CF93C0E08C2F0E94AE
:1011C000C908CF5FC830D1F70E94B908CF91089500
:1011D00086ED93E00E945F142FE38DE093E02150B1
:1011E00080409040E1F700C00000E0910301F091E1
:1011F00004018EEA8083E0910301F091040181EA09
:101200008083E0910301F09104018AED8083E091F5
:101210000301F091040182E18083E0910301F091E8
:10122000040188EC8083E0910301F091040188EAD5
:101230008083E0910301F09104018FE38083E091CA
:101240000301F091040185ED8083E0910301F091A9
:10125000040180E88083E0910301F091040181E8BA
:101260008083E0910301F091040180E58083E091A7
:101270000301F091040189ED8083E0910301F09175
:10128000040181E2808380E090E00E946F08E09199
:101290000301F091040182E08083E0910301F09169
:1012A00004018BED8083E0910301F091040180E360
:1012B0008083E0910301F09104018DEA8083E09145
:1012C0000301F09104011082E0910301F091040107
:1012D00084EA8083E0910301F091040186EA80832F
:1012E000E0910301F09104018FEA8083E091030112
:1012F000F091040180E480830E94DC080895CF937C
:10130000DF93805290910201953059F0983021F08E
:10131000943009F083C00AC090910201911158C025
:101320007DC09091020191112BC078C09091020173
:10133000992309F473C020E090E0880F991F880F6B
:10134000991FA8E1B5E0FC01E20FF11DE059FF4F44
:10135000E491C0910501D0910601E883309102012A
:1013600012964D915C911397430F511D13965C9308
:101370004E9312972F5F30910201231720F34EC036
:1013800020E090E0AC01440F551F440F551F840F1F
:10139000951FA8E1B5E0FC01E20FF11DE451FE4FFD
:1013A000E491C0910501D0910601E88330910201DA
:1013B00012964D915C911397430F511D13965C93B8
:1013C0004E9312972F5F30910201231720F326C00E
:1013D00020E090E0880F991F880F991F880F991FB0
:1013E000A8E1B5E0FC01E20FF11DE953FC4FE491E7
:1013F000C0910501D0910601E88330910201129657
:101400004D915C911397430F511D13965C934E932E
:1014100012972F5F30910201231720F3DF91CF91B4
:101420000895CF93DF93EC01862F642F0E94C008AC
:101430008881882331F021960E947F09899181114A
:10144000FBCFDF91CF910895EF92FF920F931F93FF
:10145000CF93DF9300D01F92CDB7DEB7F62EE42EE8
:101460001F928F9382EF93E09F938F938E010F5F74
:101470001F4F1F930F930E948F144E2D6F2DC80185
:101480000E94110A0F900F900F900F900F900F90E5
:101490000F900F900F90DF91CF911F910F91FF90C0
:1014A000EF9008958091020108958130910539F0FF
:1014B00050F0029759F484E080930201089585E08A
:1014C00080930201089588E0809302010895CF93EC
:1014D000DF93EC01862F642F0E94C008FE018491E7
:1014E000882349F0FE01219684910E947F09FE0124
:1014F00084918111F7CFDF91CF910895FF920F93DF
:101500001F93CF93DF93C0912E050E94DC0880913A
:101510002F05909130058130910509F44DC040F0C0
:101520008230910509F483C0039709F4F6C031C1F4
:1015300080E090E00E94550A40912D05D1E0DC0F3B
:101540006C2F88EB97E00E94670A81E090E00E9490
:10155000550AE0912F05F0913005E154F94FE491DF
:10156000EE23D9F0C0E040912B0511E01D0FEC2FC8
:10157000F0E0EE0FFF1FEA56F84F859194916D2F22
:101580000E94670ACF5FE0912F05F0913005E1548A
:10159000F94FE491D12FCE1730F382E090E00E9412
:1015A000550A60912B058091320566500E94C00853
:1015B0008EE30E947F09EDC080E090E00E94550A12
:1015C00040912D056C2F8EE897E00E94670A81E01C
:1015D00090E00E94550A40912B05EFE4F7E08591D9
:1015E000949161E06C0F0E94670A60912B058091D5
:1015F000320566500E94C00882E090E00E94550AC1
:101600008EE30E947F0963E06C0F01E517E0CA5F7B
:1016100040912B05D1E0D60FF801859194910E945D
:10162000670A0E5F1F4F6D2FDC13F2CFB2C080E050
:1016300090E00E94550A40912D05D1E0DC0F6C2FFF
:1016400088E497E00E94670A81E090E00E94550AD2
:10165000E0912F05F0913005E154F94FE491EE232C
:10166000E1F0C0E040912B0511E01D0FEC2FF0E000
:10167000EE0FFF1FE150F94F859194916D2F0E945D
:10168000670ACF5FE0912F05F0913005E154F94FE3
:10169000E491D12FCE1730F302C01D2FC0E060912E
:1016A0002B058091320566500E94C00882E090E0D0
:1016B0000E94550A8EE30E947F0940912B05D2E0DB
:1016C000D10FEC2FF0E0EE0FFF1FE150F94F8591A5
:1016D00094916D2F0E94670A40912B0580912A05F5
:1016E0004C5E6D2F0E94240A40912B05D4E0D10F4F
:1016F000CF5FEC2FF0E0EE0FFF1FE150F94F859127
:1017000094916D2F0E94670A40912B0580913305BB
:101710004C5E6D2F0E94240A3CC080E090E00E9445
:10172000550A40912D056C2F85EF96E00E94670ABF
:1017300081E090E00E94550A40912B05D2E0DC0F39
:10174000E3ECF6E08591949161E06C0F0E94670AEA
:1017500060912B058091320566500E94C00882E09E
:1017600090E00E94550A8EE30E947F0905EC16E086
:10177000C95F40912B05FF24F394FD0EF80185917C
:1017800094916D2F0E94670A0E5F1F4FDF2DFC1290
:10179000F0CFDF91CF911F910F91FF90089580912D
:1017A00034059091350581309105E1F120F00297E3
:1017B00009F458C074C080912F0590913005813094
:1017C000910591F030F082309105B9F0039709F15D
:1017D00076C085EF93E00E945F1482E090E09093E2
:1017E000300580932F056BC087E094E00E945F1462
:1017F0001092300510922F0562C089E194E00E949A
:101800005F1410921E0510921D0581E080932C0537
:1018100056C087E094E00E945F1410923005109249
:101820002F054DC080912F0590913005009719F03C
:10183000029761F044C08AE294E00E945F1483E062
:1018400090E09093300580932F0539C08BE394E0AE
:101850000E945F1410921E0510921D0581E0809376
:101860002C052DC080912F0590913005009719F01F
:10187000029761F024C084E494E00E945F1481E048
:1018800090E09093300580932F0519C087E094E095
:101890000E945F141092300510922F0510C08091A5
:1018A0003405909135059F938F9387E594E09F933E
:1018B0008F930E9449140F900F900F900F901092E9
:1018C00035051092340580912E058F5F8093320587
:1018D0000895CF9310922C05E0912F05F0913005DB
:1018E000E154F94FC4910E942A088330910531F5E3
:1018F000809132058150809332058091340590911A
:101900003505019790933505809334052091320574
:1019100080912E0530E090E00196281739075CF49D
:10192000809132058C0F80933205EC2FF0E0F0931C
:101930003505E09334050E947E0A3BC0049719F5F3
:10194000809132058F5F80933205809134059091AC
:1019500035050196909335058093340580913405C3
:1019600090913505EC2FF0E08E179F0748F080919D
:101970002E058F5F80933205109235051092340545
:101980000E947E0A16C080E090E00E940308892B26
:1019900061F482E090E00E940308892B31F481E039
:1019A00090E00E940308892B21F00E94CF0B0E9437
:1019B0007E0A80912C05CF9108958AE794E09F9349
:1019C0008F930E9449142FEF8FE797E021508040BA
:1019D0009040E1F700C000001092360510923005EB
:1019E00010922F0510923505109234058AE08093ED
:1019F0002D0584E180932B0581E080932E05809155
:101A00002E058F5F8093320510922C0510923305BE
:101A100010922A050E94520A27E0829FC0011124D9
:101A20009595879540E4481B64E082EC97E00E941E
:101A3000670A8FEF9FEF2AE4815090402040E1F742
:101A400000C000000E94DC080E947E0A0F900F90E8
:101A500008958FB9779BFECF8FB1089587E994E001
:101A60009F938F930E9449142FE38DE093E02150C0
:101A700080409040E1F700C0000080EB87BB81E52B
:101A80008DB90F900F900895CF93C82FC49883E01D
:101A90000E94290D8C2F0E94290D80E00E94290DA3
:101AA000C49ACF910895CF93DF93D82FC62FC498AF
:101AB00082E00E94290D8D2F0E94290D8C2F0E94FB
:101AC000290DC49ADF91CF910895C4980E94290DE1
:101AD000C49A0895C49880EA0E94290D80E00E946B
:101AE000290DC49A08951F93CF93DF93182FD62FF3
:101AF000C42FC49885E00E94290D812F0E94290DD2
:101B00008D2F0E94290D8C2F0E94290DC49ADF91E0
:101B1000CF911F910895C49880EC0E94290DC49A1A
:101B200083ED90E30197F1F700C0000008951F9244
:101B30000F920FB60F9211248F9381E080931C05B2
:101B40008F910F900FBE0F901F90189584EB94E02B
:101B50009F938F930E9449142FE38DE093E02150CF
:101B600080409040E1F700C000000E948B0D60E0D3
:101B70008FE00E94530D63E08BE20E94530DF894B6
:101B800085B7826085BF85B78E7F85BF8BB7806440
:101B90008BBF78940F900F90089580911C05882337
:101BA00019F010921C0581E0089508958CE20E94BE
:101BB000440D82FB882780F991E089270895DF9200
:101BC000EF92FF920F931F93CF93DF931F92CDB7A6
:101BD000DEB77C01198289818F5F89838981833097
:101BE00008F01982F7016081718100811181D28032
:101BF00076956795769567957695679581E30E94CA
:101C0000530DB801660F771F62957295707F762726
:101C1000607F762782E30E94530D6D2D85E30E943D
:101C2000530DDD2071F000E010E0F701E00FF11F2F
:101C3000638186E3800F0E94530D0F5F1F4F0D15C8
:101C4000A0F381E80E94650D0F90DF91CF911F9165
:101C50000F91FF90EF90DF900895EF92FF920F9316
:101C60001F93CF937C0181E60E94440D182F82E6DA
:101C70000E94440DC82F85E60E94440DF70182831F
:101C8000110F110F110FC295C695C7708C2F90E0E0
:101C9000810F911D918380838281882381F0C0E030
:101CA0000C2F10E086E68C0F0E94440DF701E00F28
:101CB000F11F8383CF5FF7018281C81788F340E06B
:101CC00061E08CE20E94730D40E062E08CE20E94D1
:101CD000730DCF911F910F91FF90EF900895BF92D8
:101CE000CF92DF92EF92FF920F931F93CF93DF93E8
:101CF00007E315E060E0B12CE8018B2D0E94C008DD
:101D0000680180E8C80ED11C76012196FE0131974A
:101D1000808190E00E9469086C2F601BEC16FD0624
:101D2000A1F7B394860188E0B812E6CF60E080E0C6
:101D30000E94C008DF91CF911F910F91FF90EF900B
:101D4000DF90CF90BF90089581ED94E09F938F93A3
:101D50000E9449140E94DC08E7E3F5E087E399E07C
:101D60000F900F901192E817F907E1F70E946F0E9C
:101D700060E080E00E94C0080895262F26952695F1
:101D8000269590E030E8239F800D911D1124442377
:101D900079F0FC01E95CFA4F677081E090E002C0E5
:101DA000880F991F6A95E2F79081892B80830895A7
:101DB000FC01E95CFA4F677081E090E002C0880F97
:101DC000991F6A95E2F78095908189238083089511
:101DD000262F26952695269590E8299F9001112477
:101DE000295C3A4FF901E80FF11D808190E067709E
:101DF00002C0959587956A95E2F7817008950F93D3
:101E00001F93CF93DF93142FD62FDD0FC82FCC0F46
:101E10006D2F8C2F0E94BD0E01E00D0F412F602F02
:101E20008C2F0E94BD0ECF5F412F6D2F8C2F0E94F3
:101E3000BD0E412F602F8C2F0E94BD0EDF91CF91E0
:101E40001F910F910895660F880F0E94E80E089564
:101E5000CF93DF938CB59DB50E94F3130E94EE13D0
:101E6000959587959595879595958795959587955A
:101E7000BC010024660F771F001C660F771F001C33
:101E8000672F702DD62FC82FCF738C2F0E94230F52
:101E90008111E0CF41E06D2F8C2F0E94FF0EE7E310
:101EA000F9E0C187D287DF91CF9108950F931F93F7
:101EB000CF93DF93C82FD62F042F122F81EF94E0FA
:101EC0009F938F930E9449140E94A40EE7E3F9E0C8
:101ED000D183C08381E090E0958384831683802F33
:101EE00090E0908787830F900F90002351F01C2F74
:101EF000100F41E06D2F8C2F0E94FF0ECF5FC1139A
:101F0000F8CF0E94280F84E090E00E947512FC0137
:101F1000909343098093420981E090E0918380830C
:101F20000283148213820E946F0EDF91CF911F9162
:101F30000F9108950F931F93CF93DF9380913B09E7
:101F400090913C098130910531F4809137098F33AC
:101F500009F0C5C09FC08230910529F480913709EE
:101F60008111B0C099C08330910529F4809138095E
:101F70008111A1C093C0049709F0ABC0E09138096A
:101F8000EF3109F093C08CC0F0E001C0F90123816A
:101F9000348121153105D1F782818F5F8283809151
:101FA00040098C1314C0909141099D1310C0E7E3C0
:101FB000F9E0278130852F5F3F4F3087278380836B
:101FC00091830E94280F0E946F0E80E08FC06D2FBA
:101FD0008C2F0E94230F882341F0809139098C17A0
:101FE00021F080913A098D135DC041E06D2F8C2F57
:101FF0000E94FF0E07E319E0D801CC931196DC9301
:1020000040E06D2F8C2F0E94FF0E0E946F0ED801B2
:102010001B96ED91FC911C979281913051F4C381F4
:10202000D481CF010E940A13D0934309C09342097F
:1020300002C091509283E0914209F091430980815E
:1020400091818230910589F018F4019739F02CC004
:102050008330910589F00497B1F026C0E7E3F9E0F9
:1020600082818F5F828380E041C0E7E3F9E0828173
:102070008150828380E03AC0E7E3F9E083818150B8
:10208000838380E033C0E7E3F9E083818F5F83835C
:1020900080E02CC081E02AC081E028C081E026C019
:1020A00081E024C081E022C080E020C0C0913709D7
:1020B000D1E0DE0F69CFE7E3F9E0C081E181DFEF36
:1020C000DE0F62CFE7E3F9E0C081D181C150ED2F8F
:1020D0005BCFE7E3F9E0C081D181ED2F55CFE7E396
:1020E000F9E0C081D181CF5FED2F4ECFDF91CF914D
:1020F0001F910F910895AF92BF92CF92DF92EF920E
:10210000FF920F931F93CF93DF93A0903B09B09062
:102110003C09C7E3D9E001E010E06894EE24E1F85F
:10212000F12C0E942A086C01009709F470C08A15EE
:102130009B0509F43FC081E0C816D10429F4E2E010
:10214000AE16B104E1F448C0F2E0CF16D10429F490
:1021500081E0A816B10499F446C0E3E0CE16D1049C
:1021600029F4F4E0AF16B10451F444C084E0C81679
:10217000D10429F4E3E0AE16B10409F442C084E0CE
:1021800090E00E947512DC011196DC92CE921296BC
:102190001C92129714961C921E921397EB85FC8545
:1021A00001C0F9012381348121153105D1F7B483B0
:1021B000A3835601F2E0CF16D104A9F020F4CA940B
:1021C000CD2851F024C0F3E0CF16D10499F084E07B
:1021D000C816D104B1F01BC08C819D810297B9F063
:1021E0001D830C8314C08C819D81019781F0FD8239
:1021F000EC820DC08C819D81049749F01D830C8376
:1022000006C08C819D81039711F01D830C830E9471
:102210009A0F882309F485CF809142099091430950
:10222000FC01C381D481209711F40AC0E9010E9406
:102230000A132B813C81CE0121153105B9F701C06C
:10224000EC01CE010E940A13DF91CF911F910F91F3
:10225000FF90EF90DF90CF90BF90AF9008951DBC9E
:102260001CBCCDE0D5E0DF93CF930E94491420E061
:1022700048E065E085E00E94560F0E947B100F90B9
:102280000F90F1CF97FB072E16F4009407D077FD3F
:1022900009D00E94781107FC05D03EF490958195F5
:1022A0009F4F0895709561957F4F0895A1E21A2E72
:1022B000AA1BBB1BFD010DC0AA1FBB1FEE1FFF1FEA
:1022C000A217B307E407F50720F0A21BB30BE40B3A
:1022D000F50B661F771F881F991F1A9469F7609581
:1022E0007095809590959B01AC01BD01CF0108953B
:1022F000AA1BBB1B51E107C0AA1FBB1FA617B7072C
:1023000010F0A61BB70B881F991F5A95A9F7809547
:102310009095BC01CD0108950E9493116894B1116C
:102320000C94221208950E94071288F09F5798F08B
:10233000B92F9927B751B0F0E1F0660F771F881FCA
:10234000991F1AF0BA95C9F714C0B13091F00E94E4
:102350002112B1E008950C942112672F782F88275D
:10236000B85F39F0B93FCCF3869577956795B3950B
:10237000D9F73EF490958095709561957F4F8F4F7A
:102380009F4F0895E89409C097FB3EF4909580957F
:10239000709561957F4F8F4F9F4F9923A9F0F92F2B
:1023A00096E9BB279395F695879577956795B795A9
:1023B000F111F8CFFAF4BB0F11F460FF1BC06F5F8F
:1023C0007F4F8F4F9F4F16C0882311F096E911C0A1
:1023D000772321F09EE8872F762F05C0662371F0C2
:1023E00096E8862F70E060E02AF09A95660F771FD6
:1023F000881FDAF7880F9695879597F9089557FD06
:102400009058440F551F59F05F3F71F04795880F62
:1024100097FB991F61F09F3F79F0879508951216F9
:1024200013061406551FF2CF4695F1DF08C01616A5
:1024300017061806991FF1CF869571056105089456
:102440000895E894BB2766277727CB0197F908956D
:102450000E940712E8F09E37E8F09639B8F49E38EB
:1024600048F4672F782F8827985FF9CF869577955E
:10247000679593959539D0F3B62FB1706B0F711D99
:10248000811D20F487957795679593950C944C1250
:102490000C9467120C942212882371F4772321F094
:1024A0009850872B762F07C0662311F499270DC00B
:1024B0009051862B70E060E02AF09A95660F771FA6
:1024C000881FDAF7880F9695879597F908959F3FAB
:1024D00031F0915020F4879577956795B795880FDF
:1024E000911D9695879597F90895CF93DF93823044
:1024F000910510F482E090E0E0914609F0914709DF
:1025000020E030E0C0E0D0E0309711F1408151810F
:1025100048175907C0F04817590761F48281938121
:10252000209719F09B838A832BC09093470980934F
:10253000460926C02115310519F04217530718F432
:102540009A01BE01DF01EF010280F381E02DDCCFB3
:102550002115310509F1281B390B2430310590F480
:1025600012968D919C9113976115710521F0FB01D5
:102570009383828304C09093470980934609FD01A9
:10258000329644C0FD01E20FF31F819391932250D4
:1025900031092D933C933AC020914409309145096B
:1025A000232B41F42091090130910A013093450910
:1025B000209344092091070130910801211531052C
:1025C00041F42DB73EB740910B0150910C01241BF3
:1025D000350BE0914409F0914509E217F307A0F4A7
:1025E0002E1B3F0B2817390778F0AC014E5F5F4F69
:1025F0002417350748F04E0F5F1F5093450940934D
:1026000044098193919302C0E0E0F0E0CF01DF91B3
:10261000CF9108950F931F93CF93DF93009709F401
:102620008CC0FC01329713821282009146091091EE
:1026300047090115110581F420813181820F931F13
:1026400020914409309145092817390779F5F0930D
:102650004509E093440971C0D80140E050E0AE174D
:10266000BF0750F412962D913C911397AD0121159F
:10267000310509F1D901F3CF9D01DA0133832283BA
:1026800060817181860F971F8217930769F4EC01AF
:1026900028813981260F371F2E5F3F4F31832083DA
:1026A0008A819B8193838283452B29F4F093470988
:1026B000E093460942C01396FC93EE931297ED0106
:1026C000499159919E01240F351FE217F30771F4C8
:1026D00080819181840F951F029611969C938E9311
:1026E0008281938113969C938E931297E0E0F0E0A1
:1026F000D80112968D919C911397009719F0F801CB
:102700008C01F6CF8D919C9198012E5F3F4F820FE7
:10271000931F20914409309145092817390769F41E
:10272000309729F4109247091092460902C013828B
:1027300012821093450900934409DF91CF911F91B4
:102740000F9108958F929F92AF92BF92CF92DF9296
:10275000EF92FF92CF93DF93EC01688179818A81B8
:102760009B81611571058105910521F464E279ED84
:102770008BE597E02DE133EF41E050E00E945317E5
:1027800049015A019B01AC01A7EAB1E40E9472170A
:102790006B017C01ACEEB4EFA50194010E9480179F
:1027A000DC01CB018C0D9D1DAE1DBF1DB7FF03C00D
:1027B0000197A109B04888839983AA83BB839F7737
:1027C000DF91CF91FF90EF90DF90CF90BF90AF90CF
:1027D0009F908F9008950E94A21308958DE091E03C
:1027E0000E94A2130895A0E0B0E080930D019093A1
:1027F0000E01A0930F01B093100108950F931F9342
:10280000CF93DF93009731F46115710519F480E0DF
:1028100090E03AC08B01EC016EE070E081E090E066
:102820000E948416FC01892B91F380E883830115B3
:10283000110571F01387028781E88383809148092D
:1028400090914909892B21F4F0934909E0934809B3
:102850002097C9F0D187C08783818260838380916C
:102860004A0990914B09892B71F4F0934B09E0933D
:102870004A0980914C0990914D09892B21F4F093DC
:102880004D09E0934C09CF01DF91CF911F910F913A
:102890000895A0E0B0E0EFE4F4E10C949517AE01E8
:1028A0004B5F5F4FFA0161917191AF0180914A09CD
:1028B00090914B090E94B214E2E00C94B1170F936F
:1028C0001F93CF93DF93E0914A09F0914B09238145
:1028D00021FF1BC08C01D0E0C0E0F80181918F0185
:1028E00060914A0970914B09DB011896ED91FC91BA
:1028F0001997882331F00995892B79F3DFEFCFEF12
:10290000ECCF8AE00995892B19F08FEF9FEF02C079
:102910008D2F9C2FDF91CF911F910F910895AEE0E5
:10292000B0E0E5E9F4E10C9493170D891E8986E087
:102930008C831A8309838FEF9FE79E838D83AE017B
:10294000475E5F4F6F89788DCE0101960E94B21469
:102950002F813885F801E20FF31F10822E96E4E0F4
:102960000C94AF17ACE0B0E0E8EBF4E10C94851701
:102970007C016B018A01FC0117821682838181FF31
:10298000BDC1CE0101964C01F7019381F60193FD83
:10299000859193FF81916F01882309F4ABC1853242
:1029A00039F493FD859193FF81916F01853229F46C
:1029B000B70190E00E94BD16E7CF512C312C20E0EA
:1029C0002032A0F48B3269F030F4803259F0833237
:1029D00069F420612CC08D3239F0803339F42160E4
:1029E00026C02260246023C0286021C027FD27C0A4
:1029F00030ED380F3A3078F426FF06C0FAE05F9EDB
:102A0000300D1124532E13C08AE0389E300D11244E
:102A1000332E20620CC08E3221F426FD6BC120645F
:102A200006C08C3611F4206802C0883641F4F601E5
:102A300093FD859193FF81916F018111C1CF982FF3
:102A40009F7D9554933028F40C5F1F4FFFE3F9836B
:102A50000DC0833631F0833771F0833509F05BC0E8
:102A600022C0F801808189830E5F1F4F4424439464
:102A7000512C540115C03801F2E06F0E711CF801A1
:102A8000A080B18026FF03C0652D70E002C06FEF0B
:102A90007FEFC5012C870E94B2162C0183012C8583
:102AA0002F77222E17C03801F2E06F0E711CF8014B
:102AB000A080B18026FF03C0652D70E002C06FEFDB
:102AC0007FEFC5012C870E94A0162C012C85206861
:102AD000222E830123FC1BC0832D90E0481659064B
:102AE000B0F4B70180E290E00E94BD163A94F4CFB2
:102AF000F50127FC859127FE81915F01B70190E0E8
:102B00000E94BD1631103A94F1E04F1A5108411459
:102B1000510471F7E5C0843611F0893639F5F801B2
:102B200027FF07C060817181828193810C5F1F4FF5
:102B300008C060817181072E000C880B990B0E5F15
:102B40001F4F2F76722E97FF09C090958095709534
:102B500061957F4F8F4F9F4F2068722E2AE030E0A3
:102B6000A4010E94F516A82EA81844C0853729F4A0
:102B70002F7EB22E2AE030E025C0F22FF97FBF2E43
:102B80008F36C1F018F4883579F0B4C0803719F069
:102B9000883721F0AFC02F2F2061B22EB4FE0DC0B8
:102BA0008B2D8460B82E09C024FF0AC09F2F966029
:102BB000B92E06C028E030E005C020E130E002C0B8
:102BC00020E132E0F801B7FE07C0608171818281A7
:102BD00093810C5F1F4F06C06081718180E090E09F
:102BE0000E5F1F4FA4010E94F516A82EA818FB2DFA
:102BF000FF777F2E76FE0BC0372D3E7FA51450F455
:102C000074FE0AC072FC08C0372D3E7E05C0BA2C87
:102C1000372D03C0BA2C01C0B52C34FF0DC0FE0106
:102C2000EA0DF11D8081803311F4397E09C032FF35
:102C300006C0B394B39404C0832F867809F0B3948C
:102C400033FD13C030FF06C05A2CB31418F4530CD4
:102C50005B18B32CB31468F4B70180E290E03C87B2
:102C60000E94BD16B3943C85F5CFB31410F43B1805
:102C700001C0312C34FF12C0B70180E390E03C87E3
:102C80000E94BD163C8532FF17C031FD03C088E7A6
:102C900090E002C088E590E0B7010CC0832F8678F1
:102CA00059F031FF02C08BE201C080E237FD8DE2B6
:102CB000B70190E00E94BD16A51438F4B70180E377
:102CC00090E00E94BD165A94F7CFAA94F401EA0D41
:102CD000F11D8081B70190E00E94BD16A110F5CFD3
:102CE000332009F451CEB70180E290E00E94BD1676
:102CF0003A94F6CFF7018681978102C08FEF9FEF5C
:102D00002C96E2E10C94A1170F931F93CF93DF93BE
:102D1000869F8001879F100D969F100D1124C8017A
:102D20000E947512EC01009729F0A80160E070E0A4
:102D30000E94AB16CE01DF91CF911F910F910895A4
:102D4000FC010590615070400110D8F78095909576
:102D50008E0F9F1F0895DC0101C06D9341505040BC
:102D6000E0F70895FC016150704001900110D8F720
:102D7000809590958E0F9F1F08950F931F93CF936B
:102D8000DF93FB01238121FD03C08FEF9FEF28C05C
:102D900022FF16C04681578124813581421753078F
:102DA00044F4A081B1819D012F5F3F4F3183208387
:102DB0008C93268137812F5F3F4F3783268310C046
:102DC000EB01092F182F0084F185E02D0995892B3F
:102DD000E1F68E819F8101969F838E83812F902FB4
:102DE000DF91CF911F910F910895FA01AA27283002
:102DF00051F1203181F1E8946F936E7F6E5F7F4FC8
:102E00008F4F9F4FAF4FB1E03ED0B4E03CD0670F43
:102E1000781F891F9A1FA11D680F791F8A1F911D96
:102E2000A11D6A0F711D811D911DA11D20D009F4E6
:102E300068943F912AE0269F11243019305D319328
:102E4000DEF6CF010895462F4770405D4193B3E011
:102E50000FD0C9F7F6CF462F4F70405D4A3318F0B8
:102E6000495D31FD4052419302D0A9F7EACFB4E069
:102E7000A6959795879577956795BA95C9F7009721
:102E80006105710508959B01AC010A2E06945795C2
:102E9000479537952795BA95C9F7620F731F841F19
:102EA000951FA01D0895052E97FB1EF400940E9407
:102EB0006A1757FD07D00E94561107FC03D04EF445
:102EC0000C946A1750954095309521953F4F4F4F80
:102ED0005F4F089590958095709561957F4F8F4FC6
:102EE0009F4F08950E94BC17A59F900DB49F900D11
:102EF000A49F800D911D11240895B7FF0C947217A3
:102F00000E947217821B930B08952F923F924F924B
:102F10005F926F927F928F929F92AF92BF92CF9269
:102F2000DF92EF92FF920F931F93CF93DF93CDB772
:102F3000DEB7CA1BDB0B0FB6F894DEBF0FBECDBFEA
:102F400009942A88398848885F846E847D848C84BB
:102F50009B84AA84B984C884DF80EE80FD800C81C4
:102F60001B81AA81B981CE0FD11D0FB6F894DEBFA7
:102F70000FBECDBFED010895A29FB001B39FC00168
:102F8000A39F700D811D1124911DB29F700D811D95
:0A2F90001124911D0895F894FFCF5D
:102F9A000014080010001200004E09200001000071
:102FAA0000496E697469616C697A696E67206D653A
:102FBA006D6F7279206C61796F75742E2E2E000AEE
:102FCA0068656C6C6F20776F726C6421004F4C459A
:102FDA00445F434D442025640A004F4C45445F44F6
:102FEA004154412025640A004144432025640A00D3
:102FFA005352414D2025640A004A6F7973746963FC
:10300A006B3A2009783A202564200909536C6964CF
:10301A0065723A096C6566743A202564200A0009CB
:10302A0009793A2025642009090972696768743A9E
:10303A00202564200A0A004A4F59535449434B2019
:10304A00425554544F4E004C454654204255545410
:10305A004F4E00524947485420425554544F4E004F
:10306A000A446972656374696F6E3A2025640A0AB4
:10307A00002D202D202D202D202D202D202D202DFE
:10308A00202D202D202D202D202D202D202D202DCE
:10309A00202D202D202D202D202D202D202D202DBE
:1030AA00202D202D202D202D202D202D202D202DAE
:1030BA00202D202D202D202D202D202D202D202D9E
:1030CA00202D202D202D0A0049443A2025640A0D7E
:1030DA000025640D0A0073656E64696E67204944B1
:1030EA003A2025642C20706F7320782C79203D209B
:1030FA002825642C2564290A0A0D0068656C6C6F02
:10310A00000A0D496E697469616C697A696E672093
:10311A0055415254206472697665722E2E2E0A0D1C
:10312A00005374617274696E67205352414D207462
:10313A006573742E2E2E005772697465207068614B
:10314A007365206572726F723A206578745F726176
:10315A006D5B2534645D203D20253032582028736C
:10316A00686F756C642062652025303258290A0020
:10317A0052657472696576616C2070686173652046
:10318A006572726F723A206578745F72616D5B2541
:10319A0034645D203D2025303258202873686F75CD
:1031AA006C642062652025303258290A0053524146
:1031BA004D207465737420636F6D706C65746564FB
:1031CA002077697468200A253464206572726F72E8
:1031DA007320696E207772697465207068617365FF
:1031EA0020616E64200A253464206572726F7273DE
:1031FA0020696E2072657472696576616C207068E8
:10320A006173650A0A00496E697469616C697A6951
:10321A006E6720414443206472697665722E2E2EB1
:10322A000A0D004E6F742076616C696420636861D0
:10323A006E6E656C00496E697469616C697A696E53
:10324A0067206A6F79737469636B20647269766543
:10325A00722E2E2E004E6F742076616C6964206285
:10326A007574746F6E00496E697469616C697A6904
:10327A006E67204F4C4544206472697665722E2E23
:10328A002E00256400476F20746F2070696E67698D
:10329A0073206D656E75004261636B20746F206DDB
:1032AA0061696E206D656E750053746172742F507A
:1032BA00617573652067616D6500476F20746F20C3
:1032CA00686967682053636F7265004E6577206787
:1032DA00616D6500476F20746F206372656469745D
:1032EA0073206D656E75002564206973206E6F7496
:1032FA0020616E20617661696C61626C6520636829
:10330A006F697365207965740A00496E6974696129
:10331A006C697A696E67204F4C4544206D656E75FD
:10332A002E2E2E0A0A0D00496E697469616C697A3B
:10333A00696E6720535049206472697665722E2E31
:10334A002E0A0D00496E697469616C697A696E6743
:10335A002043414E206472697665722E2E2E0A0D24
:10336A0000696E697469616C697A696E67204F4C8D
:10337A00454420666F7220736E616B65202E2E2E77
:10338A0000696E697469616C697A696E6720736E27
:10339A00616B652067616D65202E2E2E006E657744
:0833AA002067616D650A0D004A
:00000001FF
