:100000000C9438000C9442000C9442000C94420072
:100010000C9442000C9442000C9442000C94420058
:100020000C9442000C9442000C9442000C94420048
:100030000C9442000C9442000C9442000C94420038
:100040000C9442000C9442000C9442000C94420028
:100050000C9442000C9442000C9442000C94420018
:100060000C9442000C9442000C9442000C94420008
:1000700011241FBECFEFD4E0DEBFCDBF0E944D00E4
:100080000C9466000C94000081E60E945E000E94C1
:1000900062008F5F0E945E00089560E070E08BE474
:1000A00090E00E9456000E944400FDCF10BC8FE1FA
:1000B00089B988E18AB98EE880BD08955D9BFECF3D
:1000C0008CB908955F9BFECF8CB10895F894FFCF53
:00000001FF
