:100000000C949B030C94C60A0C94F0040C94B80353
:100010000C94B8030C94B8030C94B8030C94B80374
:100020000C94B8030C94B8030C94B8030C94B80364
:100030000C94B8030C94B8030C94B8030C94B80354
:100040000C94B8030C9445050C94B8030C94B803B5
:100050000C94B8030C94B8030C94B8030C94B80334
:100060000C94B8030C94B8030C94B8030C94B80324
:1000700000000000005C00000C000C007C287C28C4
:1000800058DC68002410480028542840000C000068
:10009000007884008478000054385400107C1000EC
:1000A00080400000101010000040000060100C00A4
:1000B00038543800487C40004864580044542C00B0
:1000C0001C107C005C5424003854240064140C0080
:1000D00068542C0048543800004800008048000054
:1000E0001028440028282800442810000454080040
:1000F00038445C00781478007C5428003844280088
:100100007C4438007C5444007C140400384474005F
:100110007C107C00447C440020403C007C106C003F
:100120007C4040007C187C0078103C00384438004B
:100130007C1408003844B8007C146800485424003B
:10014000047C04007C407C003C603C007C307C00F3
:100150006C106C000C700C0064544C00007C44006B
:100160000C106000447C00000804080080808000BF
:1001700000040800304878007C48300030484800CF
:1001800030487C00306850001078140090A8780047
:100190007C08700050744000808074007C106800FF
:1001A000447C4000781078007808700030483000B7
:1001B000F82810003048F80078100800505828003F
:1001C000083C4800384078003840380078207800F3
:1001D0004830480098A0780048685800107884009B
:1001E000007C00008478100008040804000000006F
:1001F0000000005F00000007000700147F147F1458
:10020000242A7F2A1223130864623649552250009B
:1002100005030000001C2241000041221C00082AA6
:100220001C2A0808083E080800503000000808088A
:100230000808006060000020100804023E51494593
:100240003E00427F400042615149462141454B31C9
:100250001814127F1027454545393C4A4949300159
:10026000710905033649494936064949291E0036B0
:100270003600000056360000000814224114141401
:10028000141441221408000201510906324979412F
:100290003E7E1111117E7F494949363E414141223E
:1002A0007F4141221C7F494949417F090901013EA3
:1002B000414151327F0808087F00417F41002040C2
:1002C000413F017F081422417F404040407F0204AB
:1002D000027F7F0408107F3E4141413E7F090909AA
:1002E000063E4151215E7F09192946464949493157
:1002F00001017F01013F4040403F1F2040201F7F00
:100300002018207F631408146303047804036151E8
:1003100049454300007F4141020408102041417FCC
:100320000000040201020440404040400001020479
:100330000020545454787F4844443838444444207E
:10034000384444487F3854545418087E0901020840
:100350001454543C7F0804047800447D400020403D
:10036000443D00007F10284400417F40007C041879
:1003700004787C0804047838444444387C14141409
:1003800008081414187C7C080404084854545420A9
:10039000043F4440203C4040207C1C2040201C3C2A
:1003A0004030403C44281028440C5050503C446499
:1003B000544C44000836410000007F0000004136E4
:1003C000080002010302010000000000000000001C
:1003D000065F5F0600000000070700070700001423
:1003E0007F7F147F7F1400242E6B6B3A120000462F
:1003F0006630180C666200307A4F5D377A48000428
:1004000007030000000000001C3E634100000000E4
:1004100041633E1C000000082A3E1C1C3E2A0808BE
:10042000083E3E0808000000A0E060000000000850
:100430000808080808000000006060000000006074
:1004400030180C060301003E7F594D7F3E000042EC
:10045000427F7F40400000627359496F660000226E
:100460006349497F360000181C16137F7F10002750
:100470006745457D3900003C7E4B497930000003DB
:100480006371190F070000367F49497F3600000667
:100490004F49693F1E000000006C6C000000000026
:1004A000A0EC6C00000000081C3663410000001442
:1004B00014141414140000004163361C08000002D8
:1004C0000351590F0600003E7F415D5D1F1E007CF9
:1004D0007E13137E7C0000417F7F49497F36001CDC
:1004E0003E634141632200417F7F41637F1C0041A5
:1004F0007F7F495D416300417F7F491D0103001CEF
:100500003E6341517372007F7F08087F7F000000C7
:10051000417F7F41000000307040417F3F0100413A
:100520007F7F081C776300417F7F41406070007FC0
:100530007F060C067F7F007F7F060C187F7F001CE4
:100540003E6341633E1C00417F7F49090F06001E48
:100550003F21717F5E0000417F7F19396F46002681
:10056000674D597B32000003417F7F410300007FCC
:100570007F40407F7F00001F3F60603F1F00007F83
:100580007F3018307F7F0063771C081C776300077B
:100590004F78784F0700006773594D47637100002B
:1005A0007F7F41410000000103060C18306000000D
:1005B00041417F7F000000080C0603060C08008004
:1005C000808080808080800000030704000000207D
:1005D0007454543C784000413F7F44447C38003898
:1005E0007C44446C280000307848493F7F40003804
:1005F0007C54545C180000487E7F49030200009838
:10060000BCA4A4F87C0400417F7F08047C7800002F
:10061000447D7D4000000040C484FD7D0000004119
:100620007F7F10386C440000417F7F400000007CD9
:100630007C0C180C7C78007C7C04047C78000038EE
:100640007C44447C38000084FCF8A4243C18001846
:100650003C24A4F8FC8400447C78441C1800004826
:100660005C54547424000000043E7F442400003C89
:100670007C40403C7C40001C3C60603C1C00003CDA
:100680007C6030607C3C00446C3810386C44009CCA
:10069000BCA0A0FC7C00004C64745C4C64000008AE
:1006A000083E7741410000000000777700000041DC
:1006B00041773E0808000002030103020301000322
:1006C00003E906D906C7064261636B20746F204DAB
:1006D00061696E204D656E75004D69636861656C7A
:1006E000204D756C6C696E73004576656E205761A0
:1006F0006E76696B00437265646974730017070B4B
:1007000007030743726564697473004D656E752055
:100710004974656D2032004D656E75204974656DB4
:100720002031004D61696E206D656E750057656CF6
:10073000636F6D65000011241FBECFEFD4E0DEBFF4
:10074000CDBF13E0A0E0B1E0EAEEF3E202C0059015
:100750000D92A839B107D9F723E0A8E9B3E001C0A9
:100760001D92AC3BB207E1F70E94FD030C94F3111C
:100770000C94000081E191E00E94AA0E85B7806888
:1007800085BF80B7806280BF089508950E94B80930
:10079000FDCF8BE090E00E94C00CEC0182E08A83E8
:1007A0001B821C82EE24E394F12C6894DD24D1F8A2
:1007B00009E211E0F982E8820E948C06DA828B83DA
:1007C0009C83288139811F929F931F928F933F931F
:1007D0002F931F930F930E94940ECE010E94FD0A47
:1007E00080E090EF0197F1F78DB79EB708960FB6AE
:1007F000F8949EBF0FBE8DBFDDCF40E050E060E0BB
:1008000070E08BE490E00E941B040E94BA030E94F7
:10081000070580E094E00E943D060E946E0A0E9457
:10082000D50A0E94C9035D9BFECF8CB908955F9BDA
:10083000FECF8CB10895CF92DF92EF92FF92CF93CB
:10084000DF936B017C01EA018EE491E00E94AA0E25
:100850002FE38DE093E0215080409040E1F700C00D
:100860000000C701B60120E038E542E050E00E94F8
:10087000A10B215010BC29B988E18AB9CD2B19F4FC
:100880008EE880BD02C08EE080BD67E174E083E148
:1008900094E00E94490EDF91CF91FF90EF90DF909E
:1008A000CF900895A09AA89A0895A8980895A89A14
:1008B00008950E94550483EC99E00197F1F700C078
:1008C00000000E9457049FE32DE083E091502040F8
:1008D0008040E1F700C000000895CF92DF92EF92D0
:1008E000FF920F931F93CF93DF938DE591E00E94CA
:1008F000AA0E0E94390E7C010E943E0EC12CD12C02
:10090000C0E0D0E003E711E00E94390EF601F85E86
:10091000808320812817A1F099279F938F931F929E
:100920002F93DF92CF921F930F930E94940E2196E4
:100930008DB79EB708960FB6F8949EBF0FBE8DBFB9
:100940009FEFC91AD90AC11488E0D806E9F6C70191
:100950000E943E0E00E010E0E12CF12C0F2EFCEA8C
:10096000CF2EF1E0DF2EF02D0E94390EF801F85E57
:1009700020812817B1F099279F938F931F922F936F
:100980001F930F93DF92CF920E94940E9FEFE91A6C
:10099000F90A8DB79EB708960FB6F8949EBF0FBEA2
:1009A0008DBF0F5F1F4F011598E01907E9F6FF9201
:1009B000EF92DF93CF9389EE91E09F938F930E9404
:1009C000940E0F900F900F900F900F900F90DF915B
:1009D000CF911F910F91FF90EF90DF90CF900895EE
:1009E0001F920F920FB60F9211248F93EF93FF93E4
:1009F000E0910001F0910101808180939D03FF91BE
:100A0000EF918F910F900FBE0F901F90189582E479
:100A100092E00E94AA0E2FE38DE093E021508040E7
:100A20009040E1F700C000008B98939AF89485B746
:100A3000886085BF85B78B7F85BF8BB780688BBF8C
:100A40007894089580919D0308958130910539F03F
:100A500098F08230910591F0039719F004C085E079
:100A60000EC087E00CC080E592E09F938F930E94B8
:100A7000940E0F900F90089584E001C086E0E091FD
:100A80000001F0910101808308951F920F920FB62B
:100A90000F9211242F933F934F935F936F937F9304
:100AA0008F939F93AF93BF93EF93FF930E94220581
:100AB00020919E0330919F0321303105B9F148F018
:100AC0002230310509F45FC02330310509F476C0C6
:100AD00090C02091A7039927AC01421B510927FD23
:100AE00053959A0144E6429FC001439F900D112403
:100AF0006FEF70E00E948D0B072E000C880B990B96
:100B00000E940F0C0E94730C0E94D70B9B0177234D
:100B100024F422273327261B370B2093A00381E0E0
:100B200090E090939F0380939E036CC02091A50357
:100B30009927AC01421B510927FD53959A0144E6C0
:100B4000429FC001439F900D11246FEF70E00E94FF
:100B50008D0B072E000C880B990B0E940F0C0E9426
:100B6000730C0E94D70B9B01772324F42227332791
:100B7000261B370B2093A10382E090E090939F0304
:100B800080939E033FC054E6859FC00111246FEF00
:100B900070E00E948D0B072E000C880B990B0E94B1
:100BA0000F0C0E94730C0E94D70B6093A30383E089
:100BB00090E090939F0380939E0324C024E6829F3D
:100BC000C00111246FEF70E00E948D0B072E000C06
:100BD000880B990B0E940F0C0E94730C0E94D70B7C
:100BE0006093A40310929F0310929E0380E090E014
:100BF00009C080E592E09F938F930E94940E0F901E
:100C00000F9002C00E942505FF91EF91BF91AF9117
:100C10009F918F917F916F915F914F913F912F9114
:100C20000F900FBE0F901F90189580E090E00E94EB
:100C3000250589EF90E00197F1F700C000000E94C0
:100C400022058F578093A70381E090E00E9425053D
:100C500089EF90E00197F1F700C000000E942205A3
:100C60008F578093A5039FEB27E289E091502040A6
:100C70008040E1F700C000000895CF93DF93EC01BE
:100C800082E692E00E94AA0E2FE38DE093E02150CD
:100C900080409040E1F700C00000B898C09AB99831
:100CA000BA980E94150680E090E00E942505F8940D
:100CB00082E089BFC11521E0D20719F484E083BF27
:100CC00005C0C115D44011F485E083BF7894DF914D
:100CD000CF9108958130910559F018F0029761F095
:100CE0000FC096B381E08927282F217030E012C011
:100CF00026B3247030E00EC026B3227030E00AC064
:100D000085E792E09F938F930E94940E0F900F902F
:100D100021E030E0C90108958091A0039091A103E2
:100D20000895E0EAF3E070816181872F90E0C29737
:100D3000AC0122F444275527481B590B862F90E01D
:100D4000C2979C0122F422273327281B390B421714
:100D500053073CF07D3268F0783370F480E090E027
:100D600008956D3260F081E090E0683350F480E0E7
:100D7000089584E090E0089583E090E0089582E093
:100D800090E008958091A30390E008958091A403DA
:100D900090E00895E0910301F091040180830895AB
:100DA000E0910501F091060180830895E09103012F
:100DB000F091040190E29083E0910301F09104012D
:100DC00080830895CF938830A8F4C82F90E0909343
:100DD00099038093980382E090E00E94D606E09108
:100DE0000301F091040180EB8C0F808380E090E0A0
:100DF0000E94D606CF910895CF938823FCF0C82F88
:100E000082E090E00E94D6068C2F90E090939B03A6
:100E100080939A03E0910301F09104018C2F8F706D
:100E20008083E0910301F09104018C2F82958F70F3
:100E3000805F808380E090E00E94D606CF91089585
:100E400080E00E94E20680E00E94FC060895CF93B5
:100E5000C62F0E94E2068C2F0E94FC06CF910895B7
:100E6000CF93C82F60E00E94270790E0E091050132
:100E7000F091060110829F5F9038C1F78C2F0E947D
:100E8000E206CF910895CF93C0E08C2F0E943007E7
:100E9000CF5FC830D1F70E942007CF91089586E830
:100EA00092E00E94AA0E2FE38DE093E02150804053
:100EB0009040E1F700C00000E0910301F0910401CF
:100EC0008EEA8083E0910301F091040181EA80833E
:100ED000E0910301F09104018AED8083E091030128
:100EE000F091040182E18083E0910301F09104011B
:100EF00088EC8083E0910301F091040188EA80830B
:100F0000E0910301F09104018FE38083E0910301FC
:100F1000F091040185ED8083E0910301F0910401DB
:100F200080E88083E0910301F091040181E88083EF
:100F3000E0910301F091040180E58083E0910301D9
:100F4000F091040189ED8083E0910301F0910401A7
:100F500081E2808380E090E00E94D606E091030168
:100F6000F091040182E08083E0910301F09104019B
:100F70008BED8083E0910301F091040180E3808395
:100F8000E0910301F09104018DEA8083E091030177
:100F9000F09104011082E0910301F091040184EAD0
:100FA0008083E0910301F091040186EA8083E0915F
:100FB0000301F09104018FEA8083E0910301F09135
:100FC000040180E480830E9443070895CF93DF9358
:100FD000805290910201953059F0983021F0943070
:100FE00009F083C00AC090910201911158C07DC0E0
:100FF0009091020191112BC078C090910201992328
:1010000009F473C020E090E0880F991F880F991FA2
:10101000A8E9B3E0FC01E20FF11DE059FF4FE491B4
:10102000C0910501D0910601E8833091020112962A
:101030004D915C911397430F511D13965C934E9302
:1010400012972F5F30910201231720F34EC020E04A
:1010500090E0AC01440F551F440F551F840F951F9E
:10106000A8E9B3E0FC01E20FF11DE451FE4FE49169
:10107000C0910501D0910601E883309102011296DA
:101080004D915C911397430F511D13965C934E93B2
:1010900012972F5F30910201231720F326C020E022
:1010A00090E0880F991F880F991F880F991FA8E952
:1010B000B3E0FC01E20FF11DE953FC4FE491C09154
:1010C0000501D0910601E8833091020112964D91FD
:1010D0005C911397430F511D13965C934E93129797
:1010E0002F5F30910201231720F3DF91CF910895F4
:1010F000CF93DF93EC01862F642F0E94270788810E
:10110000882331F021960E94E60789918111FBCF57
:10111000DF91CF910895809102010895813091056A
:1011200039F050F0029759F484E080930201089559
:1011300085E080930201089588E08093020108957C
:10114000CF93DF93EC01862F642F0E942707FE01C7
:101150008491882349F0FE01219684910E94E6073C
:10116000FE0184918111F7CFDF91CF9108951F93F4
:10117000CF93DF93C091AA030E9443078091AB03F2
:101180009091AC03009721F0019709F445C087C006
:1011900080E090E00E948E084091A903D1E0DC0F2E
:1011A0006C2F83E297E00E94A00881E090E00E940B
:1011B0008E08E091AB03F091AC03E154F94FE49158
:1011C000EE23D9F0C0E04091A80311E01D0FEC2FF1
:1011D000F0E0EE0FFF1FE350F94F859194916D2FD2
:1011E0000E94A008CF5FE091AB03F091AC03E15403
:1011F000F94FE491D12FCE1730F382E090E00E94B6
:101200008E086091A8038091AE0366500E94270764
:101210008EE30E94E60743C080E090E00E948E08C3
:101220004091A903D1E0DC0F6C2F85EF96E00E947E
:10123000A00881E090E00E948E08E091AB03F0915D
:10124000AC03E154F94FE491EE23D9F0C0E04091B2
:10125000A80311E01D0FEC2FF0E0EE0FFF1FEF537E
:10126000F94F859194916D2F0E94A008CF5FE09176
:10127000AB03F091AC03E154F94FE491D12FCE17B9
:1012800030F36091A8038091AE0366500E94270757
:1012900082E090E00E948E088EE30E94E607DF91D4
:1012A000CF911F9108958091AF039091B003813049
:1012B0009105B1F018F0029729F140C08091AB037D
:1012C0009091AC03009719F0019731F009C085E9BE
:1012D00092E00E94AA0E04C087EB92E00E94AA0E40
:1012E0008091AB039091AC03009719F0019731F016
:1012F00009C08CED92E00E94AA0E04C08EEF92E02D
:101300000E94AA0E8091AB039091AC03009719F054
:10131000019761F013C083E293E00E94AA0E81E07E
:1013200090E09093AC038093AB0308C089E393E013
:101330000E94AA0E1092AC031092AB038091AF03EF
:101340009091B0039F938F9381E593E09F938F9348
:101350000E94940E1092B0031092AF038091AA03E2
:101360008F5F8093AE030F900F900F900F900895B2
:10137000CF93E091AB03F091AC03E154F94FC491EA
:101380000E9491068130910551F584E793E00E9417
:10139000AA0E8091AE0381508093AE038091AF037B
:1013A0009091B00301979093B0038093AF03209185
:1013B000AE038091AA0330E090E001962817390728
:1013C0005CF48091AE038C0F8093AE03EC2FF0E0C1
:1013D000F093B003E093AF030E94B70843C00297B5
:1013E00039F58DE793E00E94AA0E8091AE038F5FDE
:1013F0008093AE038091AF039091B00301969093D8
:10140000B0038093AF038091AF039091B003EC2FB2
:10141000F0E08E179F0748F08091AA038F5F8093BA
:10142000AE031092B0031092AF030E94B7081AC027
:1014300080E090E00E946A06892B61F482E090E0EF
:101440000E946A06892B31F481E090E00E946A06CE
:10145000892B41F088E893E00E94AA0E0E9453096C
:101460000E94B708CF9108951092B1031092AC0377
:101470001092AB031092B0031092AF038AE08093F6
:10148000A90384E18093A80381E08093AA0380915B
:10149000AA038F5F8093AE030E948B0827E0829F90
:1014A000C00111249595879540E4481B64E08DE2C6
:1014B00097E00E94A0088FE794E82EE181509040C9
:1014C0002040E1F700C000000E9443070E94B708D7
:1014D00008958FB9779BFECF8FB1089580EB87BBBE
:1014E00081E58DB90895CF93C82FC49883E00E94F9
:1014F000690A8C2F0E94690A80E00E94690AC49AD6
:10150000CF910895CF93DF93D82FC62FC49882E050
:101510000E94690A8D2F0E94690A8C2F0E94690A15
:10152000C49ADF91CF910895C4980E94690AC49A21
:101530000895C49880EA0E94690A80E00E94690ABE
:10154000C49A08951F93CF93DF93182FD62FC42FDB
:10155000C49885E00E94690A812F0E94690A8D2F34
:101560000E94690A8C2F0E94690AC49ADF91CF9168
:101570001F910895C49880EC0E94690AC49A83ED73
:1015800090E30197F1F700C0000008951F920F92B9
:101590000FB60F9211248F9381E080939C038F915B
:1015A0000F900FBE0F901F9018950E94BA0A60E02E
:1015B0008FE00E94820A63E08BE20E94820AF89424
:1015C00085B7826085BF85B78E7F85BF8BB7806406
:1015D0008BBF7894089580919C03882319F0109212
:1015E0009C0381E0089508958CE20E94730A82FBB7
:1015F000882780F991E089270895DF92EF92FF9282
:101600000F931F93CF93DF931F92CDB7DEB77C016B
:10161000198289818F5F89838981833008F01982DB
:10162000F7016081718100811181D2807695679583
:10163000769567957695679581E30E94820AB80151
:10164000660F771F62957295707F7627607F762789
:1016500082E30E94820A6D2D85E30E94820ADD20CA
:1016600071F000E010E0F701E00FF11F638186E305
:10167000800F0E94820A0F5F1F4F0D15A0F381E8B3
:101680000E94940A0F90DF91CF911F910F91FF90CC
:10169000EF90DF900895EF92FF920F931F93CF93F7
:1016A0007C0181E60E94730A182F82E60E94730A69
:1016B000C82F85E60E94730AF7018283110F110F6C
:1016C000110FC295C695C7708C2F90E0810F911DA8
:1016D000918380838281882381F0C0E00C2F10E009
:1016E00086E68C0F0E94730AF701E00FF11F8383D7
:1016F000CF5FF7018281C81788F340E061E08CE298
:101700000E94A20A40E062E08CE20E94A20ACF910D
:101710001F910F91FF90EF90089597FB072E16F4FD
:10172000009407D077FD09D00E94C30B07FC05D0B9
:101730003EF4909581959F4F0895709561957F4FE8
:101740000895A1E21A2EAA1BBB1BFD010DC0AA1F02
:10175000BB1FEE1FFF1FA217B307E407F50720F01A
:10176000A21BB30BE40BF50B661F771F881F991F95
:101770001A9469F760957095809590959B01AC01DE
:10178000BD01CF010895AA1BBB1B51E107C0AA1FD1
:10179000BB1FA617B70710F0A61BB70B881F991F12
:1017A0005A95A9F780959095BC01CD0108950E94A6
:1017B000DE0B6894B1110C946D0C08950E94520CCC
:1017C00088F09F5798F0B92F9927B751B0F0E1F002
:1017D000660F771F881F991F1AF0BA95C9F714C0B2
:1017E000B13091F00E946C0CB1E008950C946C0C37
:1017F000672F782F8827B85F39F0B93FCCF38695EB
:1018000077956795B395D9F73EF490958095709547
:1018100061957F4F8F4F9F4F0895E89409C097FBC4
:101820003EF490958095709561957F4F8F4F9F4FB7
:101830009923A9F0F92F96E9BB279395F6958795FB
:1018400077956795B795F111F8CFFAF4BB0F11F4BE
:1018500060FF1BC06F5F7F4F8F4F9F4F16C0882365
:1018600011F096E911C0772321F09EE8872F762F9B
:1018700005C0662371F096E8862F70E060E02AF0DC
:101880009A95660F771F881FDAF7880F96958795C8
:1018900097F9089557FD9058440F551F59F05F3F31
:1018A00071F04795880F97FB991F61F09F3F79F082
:1018B00087950895121613061406551FF2CF469504
:1018C000F1DF08C0161617061806991FF1CF869586
:1018D0007105610508940895E894BB27662777276A
:1018E000CB0197F908950E94520CE8F09E37E8F07A
:1018F0009639B8F49E3848F4672F782F8827985F78
:10190000F9CF86957795679593959539D0F3B62F4E
:10191000B1706B0F711D811D20F4879577956795C8
:1019200093950C94970C0C94B20C0C946D0C88232A
:1019300071F4772321F09850872B762F07C0662308
:1019400011F499270DC09051862B70E060E02AF0C9
:101950009A95660F771F881FDAF7880F96958795F7
:1019600097F908959F3F31F0915020F4879577952E
:101970006795B795880F911D9695879597F9089566
:10198000CF93DF938230910510F482E090E0E091F4
:10199000B403F091B50320E030E0C0E0D0E0309730
:1019A00011F14081518148175907C0F04817590774
:1019B00061F482819381209719F09B838A832BC0E5
:1019C0009093B5038093B40326C02115310519F017
:1019D0004217530718F49A01BE01DF01EF0102809C
:1019E000F381E02DDCCF2115310509F1281B390BDE
:1019F0002430310590F412968D919C9113976115C6
:101A0000710521F0FB019383828304C09093B50399
:101A10008093B403FD01329644C0FD01E20FF31F31
:101A200081939193225031092D933C933AC0209198
:101A3000B2033091B303232B41F42091090130917B
:101A40000A013093B3032093B20320910701309130
:101A500008012115310541F42DB73EB740910B0126
:101A600050910C01241B350BE091B203F091B303AC
:101A7000E217F307A0F42E1B3F0B2817390778F065
:101A8000AC014E5F5F4F2417350748F04E0F5F1FC4
:101A90005093B3034093B2038193919302C0E0E06B
:101AA000F0E0CF01DF91CF9108950F931F93CF9373
:101AB000DF93009709F48CC0FC01329713821282E5
:101AC0000091B4031091B5030115110581F4208133
:101AD0003181820F931F2091B2033091B3032817F5
:101AE000390779F5F093B303E093B20371C0D801DD
:101AF00040E050E0AE17BF0750F412962D913C9194
:101B00001397AD012115310509F1D901F3CF9D01DD
:101B1000DA013383228360817181860F971F8217D8
:101B2000930769F4EC0128813981260F371F2E5F56
:101B30003F4F318320838A819B8193838283452B0E
:101B400029F4F093B503E093B40342C01396FC93D9
:101B5000EE931297ED01499159919E01240F351F83
:101B6000E217F30771F480819181840F951F02962B
:101B700011969C938E938281938113969C938E935E
:101B80001297E0E0F0E0D80112968D919C911397A6
:101B9000009719F0F8018C01F6CF8D919C91980176
:101BA0002E5F3F4F820F931F2091B2033091B303FA
:101BB0002817390769F4309729F41092B503109269
:101BC000B40302C0138212821093B3030093B203D2
:101BD000DF91CF911F910F9108958F929F92AF92B5
:101BE000BF92CF92DF92EF92FF92CF93DF93EC01FF
:101BF000688179818A819B816115710581059105D3
:101C000021F464E279ED8BE597E02DE133EF41E0DB
:101C100050E00E947B1149015A019B01AC01A7EAE7
:101C2000B1E40E949A116B017C01ACEEB4EFA50106
:101C300094010E94A811DC01CB018C0D9D1DAE1DED
:101C4000BF1DB7FF03C00197A109B04888839983DE
:101C5000AA83BB839F77DF91CF91FF90EF90DF90B6
:101C6000CF90BF90AF909F908F9008950E94ED0D00
:101C700008958DE091E00E94ED0D0895A0E0B0E0A0
:101C800080930D0190930E01A0930F01B09310016A
:101C900008950F931F93CF93DF93009731F461154D
:101CA000710519F480E090E03AC08B01EC016EE020
:101CB00070E081E090E00E94AC10FC01892B91F370
:101CC00080E883830115110571F01387028781E88D
:101CD00083838091B6039091B703892B21F4F0930D
:101CE000B703E093B6032097C9F0D187C0878381FB
:101CF000826083838091B8039091B903892B71F43A
:101D0000F093B903E093B8038091BA039091BB03B9
:101D1000892B21F4F093BB03E093BA03CF01DF9149
:101D2000CF911F910F910895A0E0B0E0EAE9FEE0A5
:101D30000C94BD11AE014B5F5F4FFA01619171913F
:101D4000AF018091B8039091B9030E94DA0EE2E0EE
:101D50000C94D9110F931F93CF93DF93E091B803A5
:101D6000F091B903238121FF1BC08C01D0E0C0E0BA
:101D7000F80181918F016091B8037091B903DB0183
:101D80001896ED91FC911997882331F00995892BCC
:101D900079F3DFEFCFEFECCF8AE00995892B19F0CB
:101DA0008FEF9FEF02C08D2F9C2FDF91CF911F915E
:101DB0000F910895ACE0B0E0E0EEFEE00C94AD11C0
:101DC0007C016B018A01FC0117821682838181FFED
:101DD000BDC1CE0101964C01F7019381F60193FD3F
:101DE000859193FF81916F01882309F4ABC18532FE
:101DF00039F493FD859193FF81916F01853229F428
:101E0000B70190E00E94E510E7CF512C312C20E083
:101E10002032A0F48B3269F030F4803259F08332F2
:101E200069F420612CC08D3239F0803339F421609F
:101E300026C02260246023C0286021C027FD27C05F
:101E400030ED380F3A3078F426FF06C0FAE05F9E96
:101E5000300D1124532E13C08AE0389E300D11240A
:101E6000332E20620CC08E3221F426FD6BC120641B
:101E700006C08C3611F4206802C0883641F4F601A1
:101E800093FD859193FF81916F018111C1CF982FAF
:101E90009F7D9554933028F40C5F1F4FFFE3F98327
:101EA0000DC0833631F0833771F0833509F05BC0A4
:101EB00022C0F801808189830E5F1F4F4424439420
:101EC000512C540115C03801F2E06F0E711CF8015D
:101ED000A080B18026FF03C0652D70E002C06FEFC7
:101EE0007FEFC5012C870E94DA102C0183012C851D
:101EF0002F77222E17C03801F2E06F0E711CF80107
:101F0000A080B18026FF03C0652D70E002C06FEF96
:101F10007FEFC5012C870E94C8102C012C852068FA
:101F2000222E830123FC1BC0832D90E04816590606
:101F3000B0F4B70180E290E00E94E5103A94F4CF4B
:101F4000F50127FC859127FE81915F01B70190E0A3
:101F50000E94E51031103A94F1E04F1A51084114F3
:101F6000510471F7E5C0843611F0893639F5F8016E
:101F700027FF07C060817181828193810C5F1F4FB1
:101F800008C060817181072E000C880B990B0E5FD1
:101F90001F4F2F76722E97FF09C0909580957095F0
:101FA00061957F4F8F4F9F4F2068722E2AE030E05F
:101FB000A4010E941D11A82EA81844C0853729F439
:101FC0002F7EB22E2AE030E025C0F22FF97FBF2EFF
:101FD0008F36C1F018F4883579F0B4C0803719F025
:101FE000883721F0AFC02F2F2061B22EB4FE0DC074
:101FF0008B2D8460B82E09C024FF0AC09F2F9660E5
:10200000B92E06C028E030E005C020E130E002C073
:1020100020E132E0F801B7FE07C060817181828162
:1020200093810C5F1F4F06C06081718180E090E05A
:102030000E5F1F4FA4010E941D11A82EA818FB2D92
:10204000FF777F2E76FE0BC0372D3E7FA51450F410
:1020500074FE0AC072FC08C0372D3E7E05C0BA2C43
:10206000372D03C0BA2C01C0B52C34FF0DC0FE01C2
:10207000EA0DF11D8081803311F4397E09C032FFF1
:1020800006C0B394B39404C0832F867809F0B39448
:1020900033FD13C030FF06C05A2CB31418F4530C90
:1020A0005B18B32CB31468F4B70180E290E03C876E
:1020B0000E94E510B3943C85F5CFB31410F43B189F
:1020C00001C0312C34FF12C0B70180E390E03C879F
:1020D0000E94E5103C8532FF17C031FD03C088E740
:1020E00090E002C088E590E0B7010CC0832F8678AD
:1020F00059F031FF02C08BE201C080E237FD8DE272
:10210000B70190E00E94E510A51438F4B70180E310
:1021100090E00E94E5105A94F7CFAA94F401EA0DDA
:10212000F11D8081B70190E00E94E510A110F5CF6C
:10213000332009F451CEB70180E290E00E94E5100F
:102140003A94F6CFF7018681978102C08FEF9FEF17
:102150002C96E2E10C94C9110F931F93CF93DF9358
:10216000869F8001879F100D969F100D1124C80136
:102170000E94C00CEC01009729F0A80160E070E01B
:102180000E94D310CE01DF91CF911F910F9108953E
:10219000FC010590615070400110D8F78095909532
:1021A0008E0F9F1F0895DC0101C06D934150504078
:1021B000E0F70895FC016150704001900110D8F7DC
:1021C000809590958E0F9F1F08950F931F93CF9327
:1021D000DF93FB01238121FD03C08FEF9FEF28C018
:1021E00022FF16C04681578124813581421753074B
:1021F00044F4A081B1819D012F5F3F4F3183208343
:102200008C93268137812F5F3F4F3783268310C001
:10221000EB01092F182F0084F185E02D0995892BFA
:10222000E1F68E819F8101969F838E83812F902F6F
:10223000DF91CF911F910F910895FA01AA272830BD
:1022400051F1203181F1E8946F936E7F6E5F7F4F83
:102250008F4F9F4FAF4FB1E03ED0B4E03CD0670FFF
:10226000781F891F9A1FA11D680F791F8A1F911D52
:10227000A11D6A0F711D811D911DA11D20D009F4A2
:1022800068943F912AE0269F11243019305D3193E4
:10229000DEF6CF010895462F4770405D4193B3E0CD
:1022A0000FD0C9F7F6CF462F4F70405D4A3318F074
:1022B000495D31FD4052419302D0A9F7EACFB4E025
:1022C000A6959795879577956795BA95C9F70097DD
:1022D0006105710508959B01AC010A2E069457957E
:1022E000479537952795BA95C9F7620F731F841FD5
:1022F000951FA01D0895052E97FB1EF400940E94C3
:10230000921157FD07D00E94A10B07FC03D04EF499
:102310000C94921150954095309521953F4F4F4F19
:102320005F4F089590958095709561957F4F8F4F81
:102330009F4F08950E94E411A59F900DB49F900DAA
:10234000A49F800D911D11240895B7FF0C949A113C
:102350000E949A11821B930B08952F923F924F92E5
:102360005F926F927F928F929F92AF92BF92CF9225
:10237000DF92EF92FF920F931F93CF93DF93CDB72E
:10238000DEB7CA1BDB0B0FB6F894DEBF0FBECDBFA6
:1023900009942A88398848885F846E847D848C8477
:1023A0009B84AA84B984C884DF80EE80FD800C8180
:1023B0001B81AA81B981CE0FD11D0FB6F894DEBF63
:1023C0000FBECDBFED010895A29FB001B39FC00124
:1023D000A39F700D811D1124911DB29F700D811D51
:0A23E0001124911D0895F894FFCF19
:1023EA00001408001000120000BC032000010000C5
:1023FA00006D656D6F72795F6C61796F75745F6975
:10240A006E697428292E2E2E0073656E64696E67B4
:10241A002049443A2025642C20706F7320782C7947
:10242A00203D202825642C2564290A0A0D005541DF
:10243A0052545F696E697428292E2E2E00537461D6
:10244A007274696E67205352414D20746573742EFD
:10245A002E2E005772697465207068617365206555
:10246A0072726F723A206578745F72616D5B25349F
:10247A00645D203D2025303258202873686F756CC2
:10248A00642062652025303258290A005265747228
:10249A00696576616C207068617365206572726F18
:1024AA00723A206578745F72616D5B2534645D20D1
:1024BA003D2025303258202873686F756C6420627D
:1024CA00652025303258290A005352414D2074653F
:1024DA00737420636F6D706C6574656420776974BA
:1024EA0068200A253464206572726F727320696EDF
:1024FA0020777269746520706861736520616E6403
:10250A00200A253464206572726F727320696E2006
:10251A0072657472696576616C2070686173650AA8
:10252A000A004144435F696E697428292E2E2E00E1
:10253A004E6F742076616C6964206368616E6E65A3
:10254A006C006A6F79737469636B5F696E6974286A
:10255A00292E2E2E004E6F742076616C69642062DB
:10256A007574746F6E004F4C454420696E69742807
:10257A00292E2E2E0043686F6F73696E67206D6572
:10258A006E75204974656D203120696E206D616910
:10259A006E206D656E750043686F6F73696E672094
:1025AA006D656E75204974656D203120696E2063F2
:1025BA00726564697473206D656E750043686F6F28
:1025CA0073696E67206D656E75204974656D20327A
:1025DA0020696E206D61696E206D656E75004368B5
:1025EA006F6F73696E67206D656E75204974656DCE
:1025FA00203220696E2063726564697473206D6588
:10260A006E7500476F696E6720746F206372656428
:10261A00697473206D656E7500476F696E67206215
:10262A0061636B20746F206D61696E206D656E75D4
:10263A00002564206973206E6F7420616E206176B4
:10264A0061696C61626C652063686F697365207982
:10265A0065740A00676F696E6720757000676F6935
:10266A006E6720646F776E0063686F6F73696E6759
:08267A00206F7074696F6E009F
:00000001FF
