:100000000C9476000C9497000C9497000C943B0190
:100010000C9497000C9497000C9497000C94970004
:100020000C9497000C9497000C9497000C949700F4
:100030000C9497000C9497000C9497000C949700E4
:100040000C9497000C9497000C9497000C949700D4
:100050000C9497000C9497000C9497000C949700C4
:100060000C9497000C9497000C9497000C949700B4
:100070000C9497000C9497000C9497000C949700A4
:100080000C9497000C9497000C9497000C94970094
:100090000C9497000C9497000C9497000C94970084
:1000A0000C9497000C9497000C9497000C94970074
:1000B0000C9497000C9497000C9497000C94970064
:1000C0000C9497000C9497000C9497000C94970054
:1000D0000C9497000C9497000C9497000C94970044
:1000E0000C9497000C9402010C94FA0011241FBE8A
:1000F000CFEFD1E2DEBFCDBF00E00CBF12E0A0E049
:10010000B2E0E2E9FEE000E00BBF02C007900D9212
:10011000A236B107D9F722E0A2E6B2E001C01D92F3
:10012000AD36B207E1F70E94EE000C9447070C943D
:1001300000008BE090E00E94C102EC0188E08A831D
:100140008A818823F1F010E00F2EF6E0EF2EF2E026
:10015000FF2EF02DFE01E10FF11D13838381282F67
:10016000082E000C330B3F938F93FF92EF920E9467
:1001700039041F5F8A810F900F900F900F9018170E
:1001800048F383E090E099838883888199819F93E5
:100190008F938BE092E09F938F930E9439040F908E
:1001A0000F900F900F9004E112E0CE010E947701B2
:1001B0002FEF83ED90E3215080409040E1F700C0A5
:1001C0000000288139813F932F931F930F930E9442
:1001D00039040F900F900F900F90E7CF60E074E21A
:1001E00084EF90E00E940A010E949A020E942D0270
:1001F0000E949900E0ECF0E0908195FFFDCF8093A4
:10020000C6000895E0ECF0E080818823ECF780914F
:10021000C6000895CF92DF92EF92FF926B017C01AE
:100220008FE192E00E944D042FE38DE093E0215096
:1002300080409040E1F700C00000C701B60120E017
:1002400038E542E050E00E949F0221501092C50024
:100250002093C40088E18093C1008EE08093C200A7
:1002600062E071E08AEF90E00E94EE03FF90EF9071
:10027000DF90CF9008951F920F920FB60F92112426
:100280000BB60F922F933F934F935F936F937F9390
:100290008F939F93AF93BF93EF93FF9381E08093EE
:1002A00062028EE292E09F938F930E9439040F9036
:1002B0000F90FF91EF91BF91AF919F918F917F919F
:1002C0006F915F914F913F912F910F900BBE0F90C7
:1002D0000FBE0F901F90189508958CE20E94410266
:1002E00082FB882780F991E0892708950895AF92CD
:1002F000BF92DF92EF92FF920F931F93CF93DF9302
:100300001F92CDB7DEB77C01198289818F5F898307
:100310008981833008F01982F701A080B1800081C3
:100320001181D280808191819F938F9385E392E0A8
:100330009F938F930E943904B501769567957695C2
:1003400067957695679581E30E945002B801660F24
:10035000771F62957295707F7627607F762782E39C
:100360000E9450026D2D85E30E9450020F900F9065
:100370000F900F90DD2071F000E010E0F701E00F2A
:10038000F11F638186E3800F0E9450020F5F1F4FB1
:100390000D15A0F381E80E9462020F90DF91CF91CA
:1003A0001F910F91FF90EF90DF90BF90AF90089555
:1003B000EF92FF920F931F93CF937C0181E60E94EF
:1003C0004102C82F82E60E944102182F85E60E9452
:1003D0004102F7018283812F829586958770CC0F29
:1003E000CC0FCC0F2C2F30E0280F311D3183208310
:1003F0001F928F9382E492E09F938F930E9439041F
:10040000F70182811F928F9380E592E09F938F93F3
:100410000E943904F70182812DB73EB7285F3F4F14
:100420000FB6F8943EBF0FBE2DBF882381F0C0E009
:100430000C2F10E086E68C0F0E944102F701E00FBE
:10044000F11F8383CF5FF7018281C81788F3CF91B3
:100450001F910F91FF90EF9008950E94880260E035
:100460008FE00E94500263E08BE20E945002F894F9
:1004700085B7806285BF85B78F7E85BFEA9A7894FD
:100480000895CF93C82F2F9883E00E9494028C2F59
:100490000E94940280E00E9494022F9ACF910895C6
:1004A000CF93DF93D82FC62F2F9882E00E9494021B
:1004B0008D2F0E9494028C2F0E9494022F9ADF911C
:1004C000CF9108952F980E9494022F9A08952F9803
:1004D00080EA0E94940280E00E9494022F9A08957C
:1004E0001F93CF93DF93182FD62FC42F2F9885E01B
:1004F0000E949402812F0E9494028D2F0E949402E8
:100500008C2F0E9494022F9ADF91CF911F91089512
:100510002F9880EC0E9494022F9A83ED90E301972C
:10052000F1F700C0000008958EBD0DB407FEFDCFA9
:100530008EB5089587E884B981E58CBD0895A1E260
:100540001A2EAA1BBB1BFD010DC0AA1FBB1FEE1F4D
:10055000FF1FA217B307E407F50720F0A21BB30B98
:10056000E40BF50B661F771F881F991F1A9469F714
:1005700060957095809590959B01AC01BD01CF0170
:100580000895CF93DF938230910510F482E090E0DC
:10059000E0916502F091660220E030E0C0E0D0E03A
:1005A000309711F14081518148175907C0F0481721
:1005B000590761F482819381209719F09B838A8384
:1005C0002BC0909366028093650226C021153105E9
:1005D00019F04217530718F49A01BE01DF01EF0129
:1005E0000280F381E02DDCCF2115310509F1281BB4
:1005F000390B2430310590F412968D919C9113970C
:100600006115710521F0FB019383828304C09093EF
:10061000660280936502FD01329644C0FD01E20F3F
:10062000F31F81939193225031092D933C933AC04B
:100630002091630230916402232B41F42091020245
:1006400030910302309364022093630220910002F0
:10065000309101022115310541F42DB73EB740918B
:10066000040250910502241B350BE0916302F091C6
:100670006402E217F307A0F42E1B3F0B281739077B
:1006800078F0AC014E5F5F4F2417350748F04E0FEE
:100690005F1F50936402409363028193919302C061
:1006A000E0E0F0E0CF01DF91CF9108950F931F9329
:1006B000CF93DF93009709F48CC0FC01329713822B
:1006C000128200916502109166020115110581F4F4
:1006D00020813181820F931F209163023091640247
:1006E0002817390779F5F0936402E093630271C02B
:1006F000D80140E050E0AE17BF0750F412962D919C
:100700003C911397AD012115310509F1D901F3CFC2
:100710009D01DA013383228360817181860F971FE7
:100720008217930769F4EC0128813981260F371F5E
:100730002E5F3F4F318320838A819B819383828305
:10074000452B29F4F0936602E093650242C01396AC
:10075000FC93EE931297ED01499159919E01240F5C
:10076000351FE217F30771F480819181840F951F83
:10077000029611969C938E938281938113969C93FB
:100780008E931297E0E0F0E0D80112968D919C9143
:100790001397009719F0F8018C01F6CF8D919C9179
:1007A00098012E5F3F4F820F931F2091630230917B
:1007B00064022817390769F4309729F41092660209
:1007C0001092650202C01382128210936402009399
:1007D0006302DF91CF911F910F9108950F931F93A3
:1007E000CF93DF93009731F46115710519F480E020
:1007F00090E03AC08B01EC016EE070E081E090E0A7
:100800000E947806FC01892B91F380E8838301150F
:10081000110571F01387028781E883838091670255
:1008200090916802892B21F4F0936802E0936702AB
:100830002097C9F0D187C0878381826083838091AC
:10084000690290916A02892B71F4F0936A02E09335
:10085000690280916B0290916C02892B21F4F093D4
:100860006C02E0936B02CF01DF91CF911F910F914A
:100870000895CF93DF93CDB7DEB7AE014A5F5F4FE8
:10088000FA0161917191AF018091690290916A02C0
:100890000E947D04DF91CF9108950F931F93CF9312
:1008A000DF93E0916902F0916A02238121FF1BC06E
:1008B0008C01D0E0C0E0F80181918F016091690264
:1008C00070916A02DB011896ED91FC9119978823CB
:1008D00031F01995892B79F3DFEFCFEFECCF8AE078
:1008E0001995892B19F08FEF9FEF02C08D2F9C2F48
:1008F000DF91CF911F910F9108952F923F924F92C8
:100900005F926F927F928F929F92AF92BF92CF929F
:10091000DF92EF92FF920F931F93CF93DF93CDB7A8
:10092000DEB72C970FB6F894DEBF0FBECDBF7C01AB
:100930006B018A01FC0117821682838181FFBDC190
:10094000CE0101964C01F7019381F60193FD85914B
:1009500093FF81916F01882309F4ABC1853239F48B
:1009600093FD859193FF81916F01853229F4B70141
:1009700090E00E94B106E7CF512C312C20E02032CC
:10098000A0F48B3269F030F4803259F0833269F48C
:1009900020612CC08D3239F0803339F4216026C0BB
:1009A0002260246023C0286021C027FD27C030EDCD
:1009B000380F3A3078F426FF06C0FAE05F9E300D1B
:1009C0001124532E13C08AE0389E300D1124332E8B
:1009D00020620CC08E3221F426FD6BC1206406C05B
:1009E0008C3611F4206802C0883641F4F60193FD7C
:1009F000859193FF81916F018111C1CF982F9F7DC8
:100A00009554933028F40C5F1F4FFFE3F9830DC01A
:100A1000833631F0833771F0833509F05BC022C033
:100A2000F801808189830E5F1F4F44244394512C29
:100A3000540115C03801F2E06F0E711CF801A0805E
:100A4000B18026FF03C0652D70E002C06FEF7FEF1D
:100A5000C5012C870E94A6062C0183012C852F77C7
:100A6000222E17C03801F2E06F0E711CF801A08031
:100A7000B18026FF03C0652D70E002C06FEF7FEFED
:100A8000C5012C870E9494062C012C852068222EFB
:100A9000830123FC1BC0832D90E048165906B0F457
:100AA000B70180E290E00E94B1063A94F4CFF501DC
:100AB00027FC859127FE81915F01B70190E00E949C
:100AC000B10631103A94F1E04F1A51084114510423
:100AD00071F7E5C0843611F0893639F5F80127FF42
:100AE00007C060817181828193810C5F1F4F08C0B4
:100AF00060817181072E000C880B990B0E5F1F4FD0
:100B00002F76722E97FF09C090958095709561950C
:100B10007F4F8F4F9F4F2068722E2AE030E0A40154
:100B20000E94E906A82EA81844C0853729F42F7E14
:100B3000B22E2AE030E025C0F22FF97FBF2E8F368B
:100B4000C1F018F4883579F0B4C0803719F08837CF
:100B500021F0AFC02F2F2061B22EB4FE0DC08B2D1F
:100B60008460B82E09C024FF0AC09F2F9660B92E5A
:100B700006C028E030E005C020E130E002C020E1FE
:100B800032E0F801B7FE07C06081718182819381F4
:100B90000C5F1F4F06C06081718180E090E00E5FA6
:100BA0001F4FA4010E94E906A82EA818FB2DFF776D
:100BB0007F2E76FE0BC0372D3E7FA51450F474FEB9
:100BC0000AC072FC08C0372D3E7E05C0BA2C372DF6
:100BD00003C0BA2C01C0B52C34FF0DC0FE01EA0DD4
:100BE000F11D8081803311F4397E09C032FF06C0C7
:100BF000B394B39404C0832F867809F0B39433FD83
:100C000013C030FF06C05A2CB31418F4530C5B18F1
:100C1000B32CB31468F4B70180E290E03C870E94E3
:100C2000B106B3943C85F5CFB31410F43B1801C062
:100C3000312C34FF12C0B70180E390E03C870E9462
:100C4000B1063C8532FF17C031FD03C088E790E054
:100C500002C088E590E0B7010CC0832F867859F078
:100C600031FF02C08BE201C080E237FD8DE2B701A7
:100C700090E00E94B106A51438F4B70180E390E03B
:100C80000E94B1065A94F7CFAA94F401EA0DF11D1F
:100C90008081B70190E00E94B106A110F5CF33200A
:100CA00009F451CEB70180E290E00E94B1063A9477
:100CB000F6CFF7018681978102C08FEF9FEF2C96C8
:100CC0000FB6F894DEBF0FBECDBFDF91CF911F915D
:100CD0000F91FF90EF90DF90CF90BF90AF909F90DB
:100CE0008F907F906F905F904F903F902F900895DE
:100CF0000F931F93CF93DF93869F8001879F100DE3
:100D0000969F100D1124C8010E94C102EC010097AA
:100D100029F0A80160E070E00E949F06CE01DF91FB
:100D2000CF911F910F910895FC0105906150704083
:100D30000110D8F7809590958E0F9F1F0895DC01C4
:100D400001C06D9341505040E0F70895FC0161509F
:100D5000704001900110D8F7809590958E0F9F1FDD
:100D600008950F931F93CF93DF93FB01238121FD00
:100D700003C08FEF9FEF28C022FF16C04681578126
:100D8000248135814217530744F4A081B1819D012C
:100D90002F5F3F4F318320838C93268137812F5FD4
:100DA0003F4F3783268310C0EB01092F182F008493
:100DB000F185E02D1995892BE1F68E819F810196B1
:100DC0009F838E83812F902FDF91CF911F910F9161
:100DD0000895FA01AA27283051F1203181F1E894D1
:100DE0006F936E7F6E5F7F4F8F4F9F4FAF4FB1E01E
:100DF0003ED0B4E03CD0670F781F891F9A1FA11D19
:100E0000680F791F8A1F911DA11D6A0F711D811D19
:100E1000911DA11D20D009F468943F912AE0269FDE
:100E200011243019305D3193DEF6CF010895462F3D
:100E30004770405D4193B3E00FD0C9F7F6CF462F1E
:100E40004F70405D4A3318F0495D31FD4052419387
:100E500002D0A9F7EACFB4E0A69597958795779544
:100E60006795BA95C9F700976105710508959B01CB
:100E7000AC010A2E06945795479537952795BA9554
:100E8000C9F7620F731F841F951FA01D0895F89462
:020E9000FFCF92
:100E920000006D02200025640D0A0049443A202515
:100EA200640A0D0068656C6C752025640A0D005596
:100EB2004152545F696E697428292E2E2E00666C89
:100EC200616767670069642073656E642025640A40
:100ED2000D006C6F7720726561642025640A0D0035
:100EE20072656164206C656E6774682025640A0D02
:020EF2000000FE
:00000001FF
